{
  "contractName": "PolicyFactory",
  "abi": [
    {
      "anonymous": false,
      "inputs": [
        {
          "indexed": true,
          "internalType": "address",
          "name": "account",
          "type": "address"
        }
      ],
      "name": "AdminAdded",
      "type": "event"
    },
    {
      "anonymous": false,
      "inputs": [
        {
          "indexed": true,
          "internalType": "address",
          "name": "account",
          "type": "address"
        }
      ],
      "name": "AdminRemoved",
      "type": "event"
    },
    {
      "anonymous": false,
      "inputs": [
        {
          "indexed": true,
          "internalType": "address",
          "name": "account",
          "type": "address"
        }
      ],
      "name": "MutualAdded",
      "type": "event"
    },
    {
      "anonymous": false,
      "inputs": [
        {
          "indexed": true,
          "internalType": "address",
          "name": "account",
          "type": "address"
        }
      ],
      "name": "MutualRemoved",
      "type": "event"
    },
    {
      "anonymous": false,
      "inputs": [
        {
          "indexed": false,
          "internalType": "address",
          "name": "account",
          "type": "address"
        }
      ],
      "name": "Paused",
      "type": "event"
    },
    {
      "anonymous": false,
      "inputs": [
        {
          "indexed": false,
          "internalType": "address",
          "name": "instancecAddress",
          "type": "address"
        }
      ],
      "name": "PolicyGenerated",
      "type": "event"
    },
    {
      "anonymous": false,
      "inputs": [
        {
          "indexed": false,
          "internalType": "address",
          "name": "account",
          "type": "address"
        }
      ],
      "name": "Unpaused",
      "type": "event"
    },
    {
      "inputs": [
        {
          "internalType": "address",
          "name": "_account",
          "type": "address"
        }
      ],
      "name": "addAdmin",
      "outputs": [],
      "stateMutability": "nonpayable",
      "type": "function"
    },
    {
      "inputs": [
        {
          "internalType": "address",
          "name": "_account",
          "type": "address"
        }
      ],
      "name": "addMutual",
      "outputs": [],
      "stateMutability": "nonpayable",
      "type": "function"
    },
    {
      "inputs": [],
      "name": "admins",
      "outputs": [
        {
          "internalType": "address[]",
          "name": "",
          "type": "address[]"
        }
      ],
      "stateMutability": "view",
      "type": "function"
    },
    {
      "inputs": [
        {
          "internalType": "address",
          "name": "_account",
          "type": "address"
        }
      ],
      "name": "isAdmin",
      "outputs": [
        {
          "internalType": "bool",
          "name": "",
          "type": "bool"
        }
      ],
      "stateMutability": "view",
      "type": "function"
    },
    {
      "inputs": [
        {
          "internalType": "address",
          "name": "_account",
          "type": "address"
        }
      ],
      "name": "isMutual",
      "outputs": [
        {
          "internalType": "bool",
          "name": "",
          "type": "bool"
        }
      ],
      "stateMutability": "view",
      "type": "function"
    },
    {
      "inputs": [],
      "name": "isOwner",
      "outputs": [
        {
          "internalType": "bool",
          "name": "",
          "type": "bool"
        }
      ],
      "stateMutability": "view",
      "type": "function"
    },
    {
      "inputs": [],
      "name": "kill",
      "outputs": [],
      "stateMutability": "nonpayable",
      "type": "function"
    },
    {
      "inputs": [],
      "name": "mutuals",
      "outputs": [
        {
          "internalType": "address[]",
          "name": "",
          "type": "address[]"
        }
      ],
      "stateMutability": "view",
      "type": "function"
    },
    {
      "inputs": [],
      "name": "owner",
      "outputs": [
        {
          "internalType": "address",
          "name": "",
          "type": "address"
        }
      ],
      "stateMutability": "view",
      "type": "function"
    },
    {
      "inputs": [],
      "name": "pause",
      "outputs": [],
      "stateMutability": "nonpayable",
      "type": "function"
    },
    {
      "inputs": [],
      "name": "paused",
      "outputs": [
        {
          "internalType": "bool",
          "name": "",
          "type": "bool"
        }
      ],
      "stateMutability": "view",
      "type": "function"
    },
    {
      "inputs": [
        {
          "internalType": "address",
          "name": "_account",
          "type": "address"
        }
      ],
      "name": "removeAdmin",
      "outputs": [],
      "stateMutability": "nonpayable",
      "type": "function"
    },
    {
      "inputs": [
        {
          "internalType": "address",
          "name": "_account",
          "type": "address"
        }
      ],
      "name": "removeMutual",
      "outputs": [],
      "stateMutability": "nonpayable",
      "type": "function"
    },
    {
      "inputs": [],
      "name": "unpause",
      "outputs": [],
      "stateMutability": "nonpayable",
      "type": "function"
    },
    {
      "inputs": [
        {
          "components": [
            {
              "components": [
                {
                  "internalType": "address[]",
                  "name": "wallets",
                  "type": "address[]"
                }
              ],
              "internalType": "struct MutualModel.Mutual",
              "name": "mutual",
              "type": "tuple"
            },
            {
              "components": [
                {
                  "internalType": "string",
                  "name": "prizeAmount",
                  "type": "string"
                },
                {
                  "internalType": "string",
                  "name": "fipePercentage",
                  "type": "string"
                },
                {
                  "internalType": "string",
                  "name": "app",
                  "type": "string"
                },
                {
                  "internalType": "string",
                  "name": "glasses",
                  "type": "string"
                },
                {
                  "internalType": "string",
                  "name": "rcfMaterials",
                  "type": "string"
                },
                {
                  "internalType": "string",
                  "name": "rcfBodily",
                  "type": "string"
                },
                {
                  "internalType": "string",
                  "name": "reserveCar",
                  "type": "string"
                },
                {
                  "internalType": "string",
                  "name": "franchise",
                  "type": "string"
                },
                {
                  "internalType": "string[]",
                  "name": "productCoverage",
                  "type": "string[]"
                }
              ],
              "internalType": "struct CoverageModel.Coverage",
              "name": "coverage",
              "type": "tuple"
            },
            {
              "components": [
                {
                  "internalType": "string",
                  "name": "proposal",
                  "type": "string"
                },
                {
                  "internalType": "string",
                  "name": "apolice",
                  "type": "string"
                },
                {
                  "internalType": "uint256",
                  "name": "startValidity",
                  "type": "uint256"
                },
                {
                  "internalType": "uint256",
                  "name": "endValidity",
                  "type": "uint256"
                },
                {
                  "internalType": "string",
                  "name": "apoliceStatus",
                  "type": "string"
                }
              ],
              "internalType": "struct PolicyInformationModel.PolicyInformation",
              "name": "policyInformation",
              "type": "tuple"
            },
            {
              "components": [
                {
                  "internalType": "string",
                  "name": "nameComplete",
                  "type": "string"
                },
                {
                  "internalType": "uint256",
                  "name": "dateOfBirth",
                  "type": "uint256"
                },
                {
                  "internalType": "string",
                  "name": "maritalStatus",
                  "type": "string"
                },
                {
                  "internalType": "string",
                  "name": "pocket",
                  "type": "string"
                },
                {
                  "internalType": "string",
                  "name": "cnpjCpf",
                  "type": "string"
                },
                {
                  "internalType": "string",
                  "name": "gender",
                  "type": "string"
                },
                {
                  "internalType": "string",
                  "name": "relationshipPolicyHolder",
                  "type": "string"
                }
              ],
              "internalType": "struct PolicyHolderDataModel.PolicyHolderData",
              "name": "policyHoldedrData",
              "type": "tuple"
            },
            {
              "components": [
                {
                  "internalType": "string",
                  "name": "typeParam",
                  "type": "string"
                },
                {
                  "internalType": "string",
                  "name": "marker",
                  "type": "string"
                },
                {
                  "internalType": "string",
                  "name": "model",
                  "type": "string"
                },
                {
                  "internalType": "string",
                  "name": "numerSlides",
                  "type": "string"
                },
                {
                  "internalType": "string",
                  "name": "yearManufacture",
                  "type": "string"
                },
                {
                  "internalType": "string",
                  "name": "yearModel",
                  "type": "string"
                },
                {
                  "internalType": "string",
                  "name": "licensePlate",
                  "type": "string"
                },
                {
                  "internalType": "string",
                  "name": "chassis",
                  "type": "string"
                },
                {
                  "internalType": "string",
                  "name": "renavam",
                  "type": "string"
                },
                {
                  "internalType": "string",
                  "name": "fuel",
                  "type": "string"
                },
                {
                  "internalType": "string",
                  "name": "newVehicle",
                  "type": "string"
                },
                {
                  "internalType": "string",
                  "name": "vehicleFinaced",
                  "type": "string"
                },
                {
                  "internalType": "string",
                  "name": "color",
                  "type": "string"
                }
              ],
              "internalType": "struct VehicleDataModel.VehicleData",
              "name": "vehicleData",
              "type": "tuple"
            },
            {
              "components": [
                {
                  "internalType": "string",
                  "name": "nameComplete",
                  "type": "string"
                },
                {
                  "internalType": "uint256",
                  "name": "dateOfBirth",
                  "type": "uint256"
                },
                {
                  "internalType": "string",
                  "name": "maritalStatus",
                  "type": "string"
                },
                {
                  "internalType": "string",
                  "name": "pocket",
                  "type": "string"
                },
                {
                  "internalType": "string",
                  "name": "cpfCnpj",
                  "type": "string"
                },
                {
                  "internalType": "string",
                  "name": "gender",
                  "type": "string"
                },
                {
                  "internalType": "string",
                  "name": "profession",
                  "type": "string"
                },
                {
                  "internalType": "string",
                  "name": "cnh",
                  "type": "string"
                },
                {
                  "internalType": "uint256",
                  "name": "dateFirstCnh",
                  "type": "uint256"
                },
                {
                  "internalType": "string",
                  "name": "garage",
                  "type": "string"
                },
                {
                  "internalType": "string",
                  "name": "usesWork",
                  "type": "string"
                },
                {
                  "internalType": "string",
                  "name": "vehicleUse",
                  "type": "string"
                }
              ],
              "internalType": "struct DriverDataModel.DriverData",
              "name": "driverData",
              "type": "tuple"
            }
          ],
          "internalType": "struct PolicyModel.PolicyModelStruct",
          "name": "policyModel",
          "type": "tuple"
        }
      ],
      "name": "generatePolicy",
      "outputs": [],
      "stateMutability": "nonpayable",
      "type": "function"
    },
    {
      "inputs": [
        {
          "internalType": "address",
          "name": "multualAddress",
          "type": "address"
        }
      ],
      "name": "consultMutualPolicies",
      "outputs": [
        {
          "internalType": "address[]",
          "name": "policyAddress",
          "type": "address[]"
        },
        {
          "internalType": "address[]",
          "name": "ownerAddress",
          "type": "address[]"
        }
      ],
      "stateMutability": "view",
      "type": "function"
    }
  ],
  "bytecode": "0x6080604052600080546001600160a01b031916339081179091556200002d906001600160e01b036200004716565b62000041336001600160e01b036200009916565b62000278565b62000062816001620000eb60201b62000caa1790919060201c565b6040516001600160a01b038216907f44d6d25963f097ad14f29f06854a01f575648a1ef82f30e562ccd3889717e33990600090a250565b620000b4816004620000eb60201b62000caa1790919060201c565b6040516001600160a01b038216907f887dda2e85dcedeebac4801f44d406ce142bd4a31a30b1809922d56d9df9203490600090a250565b6200010082826001600160e01b036200017616565b15620001295760405162461bcd60e51b81526004016200012090620001fe565b60405180910390fd5b6001828101805491820181556000818152602080822090930180546001600160a01b0319166001600160a01b03959095169485179055905492815292905260409091206000199091019055565b60006001600160a01b038216620001a15760405162461bcd60e51b8152600401620001209062000235565b6001830154620001b457506000620001f8565b6001600160a01b0382166000818152602085905260409020546001850180549091908110620001df57fe5b6000918252602090912001546001600160a01b03161490505b92915050565b6020808252601f908201527f526f6c65733a206163636f756e7420616c72656164792068617320726f6c6500604082015260600190565b60208082526023908201527f526f6c65733a206163636f756e742061646472657373206973206e6f742076616040820152621b1a5960ea1b606082015260800190565b6158d380620002886000396000f3fe60806040523480156200001157600080fd5b5060043610620001185760003560e01c8063815706ba11620000a5578063a122ef91116200006f578063a122ef91146200021c578063a5de36191462000235578063dc5150f9146200023f578063eab2786c14620002565762000118565b8063815706ba14620001d85780638456cb5914620001ef5780638da5cb5b14620001f95780638f32d59b14620002125762000118565b80633f4ba83a11620000e75780633f4ba83a14620001a357806341c0e1b514620001ad5780635c975abb14620001b75780637048027514620001c15762000118565b80630e779c43146200011d5780631785f53c146200013657806324d7806c146200014d5780633b2ce6da146200017c575b600080fd5b620001346200012e36600462001666565b6200026d565b005b620001346200014736600462001636565b6200045d565b620001646200015e36600462001636565b62000495565b60405162000173919062001dbe565b60405180910390f35b620001936200018d36600462001636565b620004b0565b6040516200017392919062001d95565b62000134620006fe565b6200013462000793565b62000164620007bf565b62000134620001d236600462001636565b620007c8565b62000164620001e936600462001636565b620007fd565b6200013462000812565b62000203620008a1565b60405162000173919062001d6c565b62000164620008b0565b62000226620008c1565b60405162000173919062001d80565b62000226620008d4565b620001346200025036600462001636565b620008e2565b620001346200026736600462001636565b62000917565b60035460ff16156200029c5760405162461bcd60e51b8152600401620002939062001f4e565b60405180910390fd5b620002a733620007fd565b620002c65760405162461bcd60e51b8152600401620002939062001e94565b600081604051620002d79062000d37565b620002e39190620020d1565b604051809103906000f08015801562000300573d6000803e3d6000fd5b50600780546001908101918290556040805180820182526001600160a01b0380861682523360208084019182526000968752600690529285209151825490821673ffffffffffffffffffffffffffffffffffffffff19918216178355925191909301805491909316911617905590915081905b835151518110156200041e578351518051600891600091849081106200039557fe5b6020908102919091018101516001600160a01b0390811683528282019390935260409182016000908120600754825260068352928120835460018082018655948352929091208154600290930201805492851673ffffffffffffffffffffffffffffffffffffffff19938416178155908301549083018054919094169116179091550162000373565b507fa04b225cc6603b44649307c1c9d567c327c833e7c2b5f7c6ca201f14c1ff38158160405162000450919062001d6c565b60405180910390a1505050565b620004683362000495565b620004875760405162461bcd60e51b815260040162000293906200203f565b62000492816200094c565b50565b6000620004aa60018363ffffffff620009c216565b92915050565b6001600160a01b03811660009081526008602090815260408083208054825181850281018501909352808352606094859485949392919084015b8282101562000537576000848152602090819020604080518082019091526002850290910180546001600160a01b03908116835260019182015416828401529083529092019101620004ea565b505033600090815260086020908152604080832080548251818502810185019093528083529697506060969195509350919084015b82821015620005b9576000848152602090819020604080518082019091526002850290910180546001600160a01b039081168352600191820154168284015290835290920191016200056c565b505050509050600081511180620005d65750620005d63362000495565b620005f55760405162461bcd60e51b8152600401620002939062001e37565b6060825160405190808252806020026020018201604052801562000623578160200160208202803683370190505b5090506060835160405190808252806020026020018201604052801562000654578160200160208202803683370190505b50905060005b8451811015620006f1578481815181106200067157fe5b6020026020010151600001518382815181106200068a57fe5b60200260200101906001600160a01b031690816001600160a01b031681525050848181518110620006b757fe5b602002602001015160200151828281518110620006d057fe5b6001600160a01b03909216602092830291909101909101526001016200065a565b5090945092505050915091565b620007093362000495565b620007285760405162461bcd60e51b815260040162000293906200203f565b60035460ff166200074d5760405162461bcd60e51b8152600401620002939062001dc9565b6003805460ff191690556040517f5db9ee0a495bf2e6ff9c91a7834c1ba4fdd244a5e8aa4e537bd38aeae4b073aa906200078990339062001d6c565b60405180910390a1565b6200079d620008b0565b620007bc5760405162461bcd60e51b815260040162000293906200209c565b33ff5b60035460ff1690565b620007d33362000495565b620007f25760405162461bcd60e51b815260040162000293906200203f565b620004928162000a48565b6000620004aa60048363ffffffff620009c216565b6200081d3362000495565b6200083c5760405162461bcd60e51b815260040162000293906200203f565b60035460ff1615620008625760405162461bcd60e51b8152600401620002939062001f4e565b6003805460ff191660011790556040517f62e78cea01bee320cd4e420270b5ea74000d11b0c9f74754ebdbfc544b05a258906200078990339062001d6c565b6000546001600160a01b031690565b6000546001600160a01b0316331490565b6060620008cf600462000a92565b905090565b6060620008cf600162000a92565b620008ed3362000495565b6200090c5760405162461bcd60e51b815260040162000293906200203f565b620004928162000afa565b620009223362000495565b620009415760405162461bcd60e51b815260040162000293906200203f565b620004928162000b44565b6001600160a01b038116331415620009785760405162461bcd60e51b8152600401620002939062001fe2565b6200098b60018263ffffffff62000b8e16565b6040516001600160a01b038216907fa3b62bc36326052d97ea62d63c3d60308ed4c3ea8ac079dd8499f1e9c4f80c0f90600090a250565b60006001600160a01b038216620009ed5760405162461bcd60e51b8152600401620002939062001ef1565b600183015462000a0057506000620004aa565b6001600160a01b038216600081815260208590526040902054600185018054909190811062000a2b57fe5b6000918252602090912001546001600160a01b0316149392505050565b62000a5b60018263ffffffff62000caa16565b6040516001600160a01b038216907f44d6d25963f097ad14f29f06854a01f575648a1ef82f30e562ccd3889717e33990600090a250565b60608160010180548060200260200160405190810160405280929190818152602001828054801562000aee57602002820191906000526020600020905b81546001600160a01b0316815260019091019060200180831162000acf575b50505050509050919050565b62000b0d60048263ffffffff62000caa16565b6040516001600160a01b038216907f887dda2e85dcedeebac4801f44d406ce142bd4a31a30b1809922d56d9df9203490600090a250565b62000b5760048263ffffffff62000b8e16565b6040516001600160a01b038216907f05e800b050686d6561bbb78a0eed76f61a060eecb68c3302017f248d5d24fd2e90600090a250565b62000b9a8282620009c2565b62000bb95760405162461bcd60e51b8152600401620002939062001f85565b600082600101600162000bcc8562000d30565b038154811062000bd857fe5b60009182526020808320909101546001600160a01b0385811684529186905260408084205492909116808452922081905560018501805492935090918391908390811062000c2257fe5b6000918252602080832091909101805473ffffffffffffffffffffffffffffffffffffffff19166001600160a01b039485161790559185168152908590526040812055600184018054600019810191908290811062000c7d57fe5b6000918252602090912001805473ffffffffffffffffffffffffffffffffffffffff191690555050505050565b62000cb68282620009c2565b1562000cd65760405162461bcd60e51b8152600401620002939062001e00565b60018281018054918201815560008181526020808220909301805473ffffffffffffffffffffffffffffffffffffffff19166001600160a01b03959095169485179055905492815292905260409091206000199091019055565b6001015490565b6136b480620021ea83390190565b600082601f83011262000d56578081fd5b813562000d6d62000d6782620021b2565b6200218a565b818152915060208083019084810160005b8481101562000dab5762000d98888484358a010162000db6565b8452928201929082019060010162000d7e565b505050505092915050565b600082601f83011262000dc7578081fd5b813567ffffffffffffffff81111562000dde578182fd5b62000df3601f8201601f19166020016200218a565b915080825283602082850101111562000e0b57600080fd5b8060208401602084013760009082016020015292915050565b600061012080838503121562000e38578182fd5b62000e43816200218a565b915050813567ffffffffffffffff8082111562000e5f57600080fd5b62000e6d8583860162000db6565b8352602084013591508082111562000e8457600080fd5b62000e928583860162000db6565b6020840152604084013591508082111562000eac57600080fd5b62000eba8583860162000db6565b6040840152606084013591508082111562000ed457600080fd5b62000ee28583860162000db6565b6060840152608084013591508082111562000efc57600080fd5b62000f0a8583860162000db6565b608084015260a084013591508082111562000f2457600080fd5b62000f328583860162000db6565b60a084015260c084013591508082111562000f4c57600080fd5b62000f5a8583860162000db6565b60c084015260e084013591508082111562000f7457600080fd5b62000f828583860162000db6565b60e08401526101009150818401358181111562000f9e57600080fd5b62000fac8682870162000d45565b8385015250505092915050565b600061018080838503121562000fcd578182fd5b62000fd8816200218a565b915050813567ffffffffffffffff8082111562000ff457600080fd5b620010028583860162000db6565b83526020840135602084015260408401359150808211156200102357600080fd5b620010318583860162000db6565b604084015260608401359150808211156200104b57600080fd5b620010598583860162000db6565b606084015260808401359150808211156200107357600080fd5b620010818583860162000db6565b608084015260a08401359150808211156200109b57600080fd5b620010a98583860162000db6565b60a084015260c0840135915080821115620010c357600080fd5b620010d18583860162000db6565b60c084015260e0840135915080821115620010eb57600080fd5b620010f98583860162000db6565b60e08401526101008481013590840152610120915081840135818111156200112057600080fd5b6200112e8682870162000db6565b8385015250610140915081840135818111156200114a57600080fd5b620011588682870162000db6565b8385015250610160915081840135818111156200117457600080fd5b62000fac8682870162000db6565b6000602080838503121562001195578182fd5b620011a0816200218a565b9150823567ffffffffffffffff811115620011ba57600080fd5b80840185601f820112620011cd57600080fd5b80359150620011e062000d6783620021b2565b8281528381019082850185850284018601891015620011fe57600080fd5b600093505b848410156200122e5780356200121981620021d3565b83526001939093019291850191850162001203565b508552509295945050505050565b600060e082840312156200124e578081fd5b6200125a60e06200218a565b9050813567ffffffffffffffff808211156200127557600080fd5b620012838583860162000db6565b8352602084013560208401526040840135915080821115620012a457600080fd5b620012b28583860162000db6565b60408401526060840135915080821115620012cc57600080fd5b620012da8583860162000db6565b60608401526080840135915080821115620012f457600080fd5b620013028583860162000db6565b608084015260a08401359150808211156200131c57600080fd5b6200132a8583860162000db6565b60a084015260c08401359150808211156200134457600080fd5b50620013538482850162000db6565b60c08301525092915050565b600060a0828403121562001371578081fd5b6200137d60a06200218a565b9050813567ffffffffffffffff808211156200139857600080fd5b620013a68583860162000db6565b83526020840135915080821115620013bd57600080fd5b620013cb8583860162000db6565b602084015260408401356040840152606084013560608401526080840135915080821115620013f957600080fd5b50620014088482850162000db6565b60808301525092915050565b60006101a080838503121562001428578182fd5b62001433816200218a565b915050813567ffffffffffffffff808211156200144f57600080fd5b6200145d8583860162000db6565b835260208401359150808211156200147457600080fd5b620014828583860162000db6565b602084015260408401359150808211156200149c57600080fd5b620014aa8583860162000db6565b60408401526060840135915080821115620014c457600080fd5b620014d28583860162000db6565b60608401526080840135915080821115620014ec57600080fd5b620014fa8583860162000db6565b608084015260a08401359150808211156200151457600080fd5b620015228583860162000db6565b60a084015260c08401359150808211156200153c57600080fd5b6200154a8583860162000db6565b60c084015260e08401359150808211156200156457600080fd5b620015728583860162000db6565b60e0840152610100915081840135818111156200158e57600080fd5b6200159c8682870162000db6565b838501525061012091508184013581811115620015b857600080fd5b620015c68682870162000db6565b838501525061014091508184013581811115620015e257600080fd5b620015f08682870162000db6565b8385015250610160915081840135818111156200160c57600080fd5b6200161a8682870162000db6565b8385015250610180915081840135818111156200117457600080fd5b60006020828403121562001648578081fd5b81356001600160a01b03811681146200165f578182fd5b9392505050565b60006020828403121562001678578081fd5b813567ffffffffffffffff8082111562001690578283fd5b81840160c08187031215620016a3578384fd5b620016af60c06200218a565b9250803582811115620016c0578485fd5b620016ce8782840162001182565b845250602081013582811115620016e3578485fd5b620016f18782840162000e24565b60208501525060408101358281111562001709578485fd5b62001717878284016200135f565b6040850152506060810135828111156200172f578485fd5b6200173d878284016200123c565b60608501525060808101358281111562001755578485fd5b620017638782840162001414565b60808501525060a0810135828111156200177b578485fd5b620017898782840162000fb9565b60a0850152509195945050505050565b6000815180845260208085019450808401835b83811015620017d35781516001600160a01b031687529582019590820190600101620017ac565b509495945050505050565b6000815180845260208085018081965082840281019150828601855b85811015620018285782840389526200181584835162001835565b98850198935090840190600101620017fa565b5091979650505050505050565b60008151808452815b818110156200185c576020818501810151868301820152016200183e565b818111156200186e5782602083870101525b50601f01601f19169290920160200192915050565b600061012082518185526200189b8286018262001835565b602085015192508581036020870152620018b6818462001835565b915050604084015191508481036040860152620018d4818362001835565b606085015192508581036060870152620018ef818462001835565b9150506080840151915084810360808601526200190d818362001835565b60a0850151925085810360a087015262001928818462001835565b91505060c0840151915084810360c086015262001946818362001835565b60e0850151925085810360e087015262001961818462001835565b91505061010091508184015185820383870152620019808282620017de565b9695505050505050565b60006101808251818552620019a28286018262001835565b60208501516020870152604085015192508581036040870152620019c7818462001835565b915050606084015191508481036060860152620019e5818362001835565b60808501519250858103608087015262001a00818462001835565b91505060a0840151915084810360a086015262001a1e818362001835565b60c0850151925085810360c087015262001a39818462001835565b91505060e0840151915084810360e086015262001a57818362001835565b61010085810151908701526101208086015187830382890152909350915062001a81818362001835565b92505050610140808401518583038287015262001a9f838262001835565b9150506101609150818401518582038387015262001980828262001835565b600081516020845262001ad5602085018262001799565b949350505050565b6000815160e0845262001af460e085018262001835565b6020840151602086015260408401519150848103604086015262001b19818362001835565b60608501519250858103606087015262001b34818462001835565b91505060808401519150848103608086015262001b52818362001835565b60a0850151925085810360a087015262001b6d818462001835565b91505060c0840151915084810360c086015262001b8b818362001835565b95945050505050565b6000815160a0845262001bab60a085018262001835565b60208401519150848103602086015262001bc6818362001835565b604085015160408701526060850151606087015260808501519250858103608087015262001980818462001835565b60006101a0825181855262001c0d8286018262001835565b60208501519250858103602087015262001c28818462001835565b91505060408401519150848103604086015262001c46818362001835565b60608501519250858103606087015262001c61818462001835565b91505060808401519150848103608086015262001c7f818362001835565b60a0850151925085810360a087015262001c9a818462001835565b91505060c0840151915084810360c086015262001cb8818362001835565b60e0850151925085810360e087015262001cd3818462001835565b9150506101009150818401518582038387015262001cf2828262001835565b92505050610120808401518583038287015262001d10838262001835565b9150506101409150818401518582038387015262001d2f828262001835565b92505050610160808401518583038287015262001d4d838262001835565b9150506101809150818401518582038387015262001980828262001835565b6001600160a01b0391909116815260200190565b6000602082526200165f602083018462001799565b60006040825262001daa604083018562001799565b828103602084015262001b8b818562001799565b901515815260200190565b60208082526014908201527f5061757361626c653a206e6f7420706175736564000000000000000000000000604082015260600190565b6020808252601f908201527f526f6c65733a206163636f756e7420616c72656164792068617320726f6c6500604082015260600190565b60208082526027908201527f506f6c696379466163746f72793a206d757374206265206d756c7475616c206f60408201527f722041646d696e00000000000000000000000000000000000000000000000000606082015260800190565b60208082526030908201527f4d757475616c526f6c653a2063616c6c657220646f6573206e6f74206861766560408201527f20746865206d757475616c20726f6c6500000000000000000000000000000000606082015260800190565b60208082526023908201527f526f6c65733a206163636f756e742061646472657373206973206e6f7420766160408201527f6c69640000000000000000000000000000000000000000000000000000000000606082015260800190565b60208082526010908201527f5061757361626c653a2070617573656400000000000000000000000000000000604082015260600190565b60208082526021908201527f526f6c65733a206163636f756e7420646f6573206e6f74206861766520726f6c60408201527f6500000000000000000000000000000000000000000000000000000000000000606082015260800190565b60208082526029908201527f41646d696e526f6c653a2063616c6c65722063616e206e6f742072656e6f756e60408201527f636520697473656c660000000000000000000000000000000000000000000000606082015260800190565b6020808252602e908201527f41646d696e526f6c653a2063616c6c657220646f6573206e6f7420686176652060408201527f7468652061646d696e20726f6c65000000000000000000000000000000000000606082015260800190565b6020808252818101527f4f776e61626c653a2063616c6c6572206973206e6f7420746865206f776e6572604082015260600190565b600060208252825160c06020840152620020ef60e084018262001abe565b60208501519150601f19808583030160408601526200210f828462001883565b60408701519350818682030160608701526200212c818562001b94565b92505060608601519250808583030160808601526200214c828462001add565b60808701519350818682030160a087015262002169818562001bf5565b92505060a08601519250808583030160c08601525062001b8b81836200198a565b60405181810167ffffffffffffffff81118282101715620021aa57600080fd5b604052919050565b600067ffffffffffffffff821115620021c9578081fd5b5060209081020190565b6001600160a01b03811681146200049257600080fdfe60806040523480156200001157600080fd5b50604051620036b4380380620036b48339810160408190526200003491620010a9565b805180518051839260009290918391620000549183916020019062000571565b5050506020828101518051805191926001850192620000779284920190620005db565b506020828101518051620000929260018501920190620005db565b5060408201518051620000b0916002840191602090910190620005db565b5060608201518051620000ce916003840191602090910190620005db565b5060808201518051620000ec916004840191602090910190620005db565b5060a082015180516200010a916005840191602090910190620005db565b5060c0820151805162000128916006840191602090910190620005db565b5060e0820151805162000146916007840191602090910190620005db565b506101008201518051620001659160088401916020909101906200065c565b505050604082015180518051600a8401916200018791839160200190620005db565b506020828101518051620001a29260018501920190620005db565b50604082015160028201556060820151600382015560808201518051620001d4916004840191602090910190620005db565b505050606082015180518051600f840191620001f691839160200190620005db565b506020828101516001830155604083015180516200021b9260028501920190620005db565b506060820151805162000239916003840191602090910190620005db565b506080820151805162000257916004840191602090910190620005db565b5060a0820151805162000275916005840191602090910190620005db565b5060c0820151805162000293916006840191602090910190620005db565b5050506080820151805180516016840191620002b591839160200190620005db565b506020828101518051620002d09260018501920190620005db565b5060408201518051620002ee916002840191602090910190620005db565b50606082015180516200030c916003840191602090910190620005db565b50608082015180516200032a916004840191602090910190620005db565b5060a0820151805162000348916005840191602090910190620005db565b5060c0820151805162000366916006840191602090910190620005db565b5060e0820151805162000384916007840191602090910190620005db565b506101008201518051620003a3916008840191602090910190620005db565b506101208201518051620003c2916009840191602090910190620005db565b506101408201518051620003e191600a840191602090910190620005db565b5061016082015180516200040091600b840191602090910190620005db565b5061018082015180516200041f91600c840191602090910190620005db565b50505060a08201518051805160238401916200044191839160200190620005db565b50602082810151600183015560408301518051620004669260028501920190620005db565b506060820151805162000484916003840191602090910190620005db565b5060808201518051620004a2916004840191602090910190620005db565b5060a08201518051620004c0916005840191602090910190620005db565b5060c08201518051620004de916006840191602090910190620005db565b5060e08201518051620004fc916007840191602090910190620005db565b506101008201516008820155610120820151805162000526916009840191602090910190620005db565b5061014082015180516200054591600a840191602090910190620005db565b5061016082015180516200056491600b840191602090910190620005db565b5050509050505062001222565b828054828255906000526020600020908101928215620005c9579160200282015b82811115620005c957825182546001600160a01b0319166001600160a01b0390911617825560209092019160019091019062000592565b50620005d7929150620006bc565b5090565b828054600181600116156101000203166002900490600052602060002090601f016020900481019282601f106200061e57805160ff19168380011785556200064e565b828001600101855582156200064e579182015b828111156200064e57825182559160200191906001019062000631565b50620005d7929150620006e6565b828054828255906000526020600020908101928215620006ae579160200282015b82811115620006ae57825180516200069d918491602090910190620005db565b50916020019190600101906200067d565b50620005d792915062000703565b620006e391905b80821115620005d75780546001600160a01b0319168155600101620006c3565b90565b620006e391905b80821115620005d75760008155600101620006ed565b620006e391905b80821115620005d75760006200072182826200072b565b506001016200070a565b50805460018160011615610100020316600290046000825580601f1062000753575062000773565b601f016020900490600052602060002090810190620007739190620006e6565b50565b80516001600160a01b03811681146200078e57600080fd5b92915050565b600082601f830112620007a5578081fd5b8151620007bc620007b68262001202565b620011db565b818152915060208083019084810160005b84811015620007fa57620007e7888484518a010162000805565b84529282019290820190600101620007cd565b505050505092915050565b600082601f83011262000816578081fd5b81516001600160401b038111156200082c578182fd5b602062000842601f8301601f19168201620011db565b925081835284818386010111156200085957600080fd5b60005b82811015620008795784810182015184820183015281016200085c565b828111156200088b5760008284860101525b50505092915050565b6000610120808385031215620008a8578182fd5b620008b381620011db565b835190925090506001600160401b0380821115620008d057600080fd5b620008de8583860162000805565b83526020840151915080821115620008f557600080fd5b620009038583860162000805565b602084015260408401519150808211156200091d57600080fd5b6200092b8583860162000805565b604084015260608401519150808211156200094557600080fd5b620009538583860162000805565b606084015260808401519150808211156200096d57600080fd5b6200097b8583860162000805565b608084015260a08401519150808211156200099557600080fd5b620009a38583860162000805565b60a084015260c0840151915080821115620009bd57600080fd5b620009cb8583860162000805565b60c084015260e0840151915080821115620009e557600080fd5b620009f38583860162000805565b60e08401526101009150818401518181111562000a0f57600080fd5b62000a1d8682870162000794565b8385015250505092915050565b600061018080838503121562000a3e578182fd5b62000a4981620011db565b835190925090506001600160401b038082111562000a6657600080fd5b62000a748583860162000805565b835260208401516020840152604084015191508082111562000a9557600080fd5b62000aa38583860162000805565b6040840152606084015191508082111562000abd57600080fd5b62000acb8583860162000805565b6060840152608084015191508082111562000ae557600080fd5b62000af38583860162000805565b608084015260a084015191508082111562000b0d57600080fd5b62000b1b8583860162000805565b60a084015260c084015191508082111562000b3557600080fd5b62000b438583860162000805565b60c084015260e084015191508082111562000b5d57600080fd5b62000b6b8583860162000805565b60e08401526101008481015190840152610120808501519092508181111562000b9357600080fd5b62000ba18682870162000805565b83850152506101409150818401518181111562000bbd57600080fd5b62000bcb8682870162000805565b83850152506101609150818401518181111562000be757600080fd5b62000a1d8682870162000805565b6000602080838503121562000c08578182fd5b62000c1381620011db565b83519092506001600160401b0381111562000c2d57600080fd5b80840185601f82011262000c4057600080fd5b8051915062000c53620007b68362001202565b828152838101908285018585028401860189101562000c7157600080fd5b600093505b8484101562000ca05762000c8b898262000776565b83526001939093019291850191850162000c76565b508552509295945050505050565b600060e0828403121562000cc0578081fd5b62000ccc60e0620011db565b82519091506001600160401b038082111562000ce757600080fd5b62000cf58583860162000805565b835260208401516020840152604084015191508082111562000d1657600080fd5b62000d248583860162000805565b6040840152606084015191508082111562000d3e57600080fd5b62000d4c8583860162000805565b6060840152608084015191508082111562000d6657600080fd5b62000d748583860162000805565b608084015260a084015191508082111562000d8e57600080fd5b62000d9c8583860162000805565b60a084015260c084015191508082111562000db657600080fd5b5062000dc58482850162000805565b60c08301525092915050565b600060a0828403121562000de3578081fd5b62000def60a0620011db565b82519091506001600160401b038082111562000e0a57600080fd5b62000e188583860162000805565b8352602084015191508082111562000e2f57600080fd5b62000e3d8583860162000805565b60208401526040840151604084015260608401516060840152608084015191508082111562000e6b57600080fd5b5062000e7a8482850162000805565b60808301525092915050565b60006101a080838503121562000e9a578182fd5b62000ea581620011db565b835190925090506001600160401b038082111562000ec257600080fd5b62000ed08583860162000805565b8352602084015191508082111562000ee757600080fd5b62000ef58583860162000805565b6020840152604084015191508082111562000f0f57600080fd5b62000f1d8583860162000805565b6040840152606084015191508082111562000f3757600080fd5b62000f458583860162000805565b6060840152608084015191508082111562000f5f57600080fd5b62000f6d8583860162000805565b608084015260a084015191508082111562000f8757600080fd5b62000f958583860162000805565b60a084015260c084015191508082111562000faf57600080fd5b62000fbd8583860162000805565b60c084015260e084015191508082111562000fd757600080fd5b62000fe58583860162000805565b60e0840152610100915081840151818111156200100157600080fd5b6200100f8682870162000805565b8385015250610120915081840151818111156200102b57600080fd5b620010398682870162000805565b8385015250610140915081840151818111156200105557600080fd5b620010638682870162000805565b8385015250610160915081840151818111156200107f57600080fd5b6200108d8682870162000805565b83850152506101809150818401518181111562000be757600080fd5b600060208284031215620010bb578081fd5b81516001600160401b0380821115620010d2578283fd5b81840160c08187031215620010e5578384fd5b620010f160c0620011db565b925080518281111562001102578485fd5b620011108782840162000bf5565b84525060208101518281111562001125578485fd5b620011338782840162000894565b6020850152506040810151828111156200114b578485fd5b620011598782840162000dd1565b60408501525060608101518281111562001171578485fd5b6200117f8782840162000cae565b60608501525060808101518281111562001197578485fd5b620011a58782840162000e86565b60808501525060a081015182811115620011bd578485fd5b620011cb8782840162000a2a565b60a0850152509195945050505050565b6040518181016001600160401b0381118282101715620011fa57600080fd5b604052919050565b60006001600160401b0382111562001218578081fd5b5060209081020190565b61248280620012326000396000f3fe608060405234801561001057600080fd5b50600436106100885760003560e01c8063c098dc051161005b578063c098dc0514610104578063c64cf12e14610119578063c78d891b14610131578063faff4cd51461015157610088565b806331d5e6eb1461008d57806352c10b9d146100af57806352df8bbb146100ca578063c027d26a146100e7575b600080fd5b610095610166565b6040516100a6959493929190612187565b60405180910390f35b6100b76103a7565b6040516100a697969594939291906121d7565b6100d2610794565b6040516100a699989796959493929190611fc3565b6100ef610d75565b6040516100a6999897969594939291906120c6565b610117610112366004611e39565b611314565b005b6101216113cc565b6040516100a69493929190611f6c565b610139611687565b6040516100a69c9b9a9998979695949392919061225e565b610159611ce2565b6040516100a69190611f1f565b6060806000808281805b6000548110156101b357600080543391908390811061018b57fe5b6000918252602090912001546001600160a01b031614156101ab57600191505b600101610170565b50806101da5760405162461bcd60e51b81526004016101d1906123d7565b60405180910390fd5b600c54600d54600a805460408051602060026001851615610100026000190190941693909304601f81018490048402820184019092528181529294600b9490939092600e9287918301828280156102725780601f1061024757610100808354040283529160200191610272565b820191906000526020600020905b81548152906001019060200180831161025557829003601f168201915b5050875460408051602060026001851615610100026000190190941693909304601f8101849004840282018401909252818152959a50899450925084019050828280156103005780601f106102d557610100808354040283529160200191610300565b820191906000526020600020905b8154815290600101906020018083116102e357829003601f168201915b5050845460408051602060026001851615610100026000190190941693909304601f81018490048402820184019092528181529599508694509250840190508282801561038e5780601f106103635761010080835404028352916020019161038e565b820191906000526020600020905b81548152906001019060200180831161037157829003601f168201915b5050505050905095509550955095509550509091929394565b60606000818080808085805b6000548110156103f65760008054339190839081106103ce57fe5b6000918252602090912001546001600160a01b031614156103ee57600191505b6001016103b3565b50806104145760405162461bcd60e51b81526004016101d1906123d7565b601054600f805460408051602060026001851615610100026000190190941693909304601f810184900484028201840190925281815292939260119260129260139260149260159289918301828280156104af5780601f10610484576101008083540402835291602001916104af565b820191906000526020600020905b81548152906001019060200180831161049257829003601f168201915b5050885460408051602060026001851615610100026000190190941693909304601f8101849004840282018401909252818152959c508a94509250840190508282801561053d5780601f106105125761010080835404028352916020019161053d565b820191906000526020600020905b81548152906001019060200180831161052057829003601f168201915b5050875460408051602060026001851615610100026000190190941693909304601f8101849004840282018401909252818152959a50899450925084019050828280156105cb5780601f106105a0576101008083540402835291602001916105cb565b820191906000526020600020905b8154815290600101906020018083116105ae57829003601f168201915b5050865460408051602060026001851615610100026000190190941693909304601f8101849004840282018401909252818152959950889450925084019050828280156106595780601f1061062e57610100808354040283529160200191610659565b820191906000526020600020905b81548152906001019060200180831161063c57829003601f168201915b5050855460408051602060026001851615610100026000190190941693909304601f8101849004840282018401909252818152959850879450925084019050828280156106e75780601f106106bc576101008083540402835291602001916106e7565b820191906000526020600020905b8154815290600101906020018083116106ca57829003601f168201915b5050845460408051602060026001851615610100026000190190941693909304601f8101849004840282018401909252818152959750869450925084019050828280156107755780601f1061074a57610100808354040283529160200191610775565b820191906000526020600020905b81548152906001019060200180831161075857829003601f168201915b5050505050905097509750975097509750975097505090919293949596565b606080808080808080806000805b6000548110156107e55760008054339190839081106107bd57fe5b6000918252602090912001546001600160a01b031614156107dd57600191505b6001016107a2565b50806108035760405162461bcd60e51b81526004016101d1906123d7565b600180546040805160206002848616156101000260001901909416849004601f81018290048202830182019093528282526003926004926005926006926007926008926009928b9183018282801561089c5780601f106108715761010080835404028352916020019161089c565b820191906000526020600020905b81548152906001019060200180831161087f57829003601f168201915b50508b5460408051602060026001851615610100026000190190941693909304601f8101849004840282018401909252818152959e508d94509250840190508282801561092a5780601f106108ff5761010080835404028352916020019161092a565b820191906000526020600020905b81548152906001019060200180831161090d57829003601f168201915b50508a5460408051602060026001851615610100026000190190941693909304601f8101849004840282018401909252818152959d508c9450925084019050828280156109b85780601f1061098d576101008083540402835291602001916109b8565b820191906000526020600020905b81548152906001019060200180831161099b57829003601f168201915b5050895460408051602060026001851615610100026000190190941693909304601f8101849004840282018401909252818152959c508b945092508401905082828015610a465780601f10610a1b57610100808354040283529160200191610a46565b820191906000526020600020905b815481529060010190602001808311610a2957829003601f168201915b5050885460408051602060026001851615610100026000190190941693909304601f8101849004840282018401909252818152959b508a945092508401905082828015610ad45780601f10610aa957610100808354040283529160200191610ad4565b820191906000526020600020905b815481529060010190602001808311610ab757829003601f168201915b5050875460408051602060026001851615610100026000190190941693909304601f8101849004840282018401909252818152959a5089945092508401905082828015610b625780601f10610b3757610100808354040283529160200191610b62565b820191906000526020600020905b815481529060010190602001808311610b4557829003601f168201915b5050865460408051602060026001851615610100026000190190941693909304601f810184900484028201840190925281815295995088945092508401905082828015610bf05780601f10610bc557610100808354040283529160200191610bf0565b820191906000526020600020905b815481529060010190602001808311610bd357829003601f168201915b5050855460408051602060026001851615610100026000190190941693909304601f810184900484028201840190925281815295985087945092508401905082828015610c7e5780601f10610c5357610100808354040283529160200191610c7e565b820191906000526020600020905b815481529060010190602001808311610c6157829003601f168201915b5050505050915080805480602002602001604051908101604052809291908181526020016000905b82821015610d515760008481526020908190208301805460408051601f6002600019610100600187161502019094169390930492830185900485028101850190915281815292830182828015610d3d5780601f10610d1257610100808354040283529160200191610d3d565b820191906000526020600020905b815481529060010190602001808311610d2057829003601f168201915b505050505081526020019060010190610ca6565b50505050905099509950995099509950995099509950995050909192939495969798565b606080808080808080806000805b600054811015610dc6576000805433919083908110610d9e57fe5b6000918252602090912001546001600160a01b03161415610dbe57600191505b600101610d83565b5080610de45760405162461bcd60e51b81526004016101d1906123d7565b6016805460408051602060026000196101006001871615020190941693909304601f818101859004850283018501909352808252601793601893601993601a93601b93916022918a9082850182828015610e7f5780601f10610e5457610100808354040283529160200191610e7f565b820191906000526020600020905b815481529060010190602001808311610e6257829003601f168201915b50508b5460408051602060026001851615610100026000190190941693909304601f8101849004840282018401909252818152959e508d945092508401905082828015610f0d5780601f10610ee257610100808354040283529160200191610f0d565b820191906000526020600020905b815481529060010190602001808311610ef057829003601f168201915b50508a5460408051602060026001851615610100026000190190941693909304601f8101849004840282018401909252818152959d508c945092508401905082828015610f9b5780601f10610f7057610100808354040283529160200191610f9b565b820191906000526020600020905b815481529060010190602001808311610f7e57829003601f168201915b5050895460408051602060026001851615610100026000190190941693909304601f8101849004840282018401909252818152959c508b9450925084019050828280156110295780601f10610ffe57610100808354040283529160200191611029565b820191906000526020600020905b81548152906001019060200180831161100c57829003601f168201915b5050885460408051602060026001851615610100026000190190941693909304601f8101849004840282018401909252818152959b508a9450925084019050828280156110b75780601f1061108c576101008083540402835291602001916110b7565b820191906000526020600020905b81548152906001019060200180831161109a57829003601f168201915b5050875460408051602060026001851615610100026000190190941693909304601f8101849004840282018401909252818152959a50899450925084019050828280156111455780601f1061111a57610100808354040283529160200191611145565b820191906000526020600020905b81548152906001019060200180831161112857829003601f168201915b5050865460408051602060026001851615610100026000190190941693909304601f8101849004840282018401909252818152959950889450925084019050828280156111d35780601f106111a8576101008083540402835291602001916111d3565b820191906000526020600020905b8154815290600101906020018083116111b657829003601f168201915b5050855460408051602060026001851615610100026000190190941693909304601f8101849004840282018401909252818152959850879450925084019050828280156112615780601f1061123657610100808354040283529160200191611261565b820191906000526020600020905b81548152906001019060200180831161124457829003601f168201915b5050845460408051602060026001851615610100026000190190941693909304601f8101849004840282018401909252818152959750869450925084019050828280156112ef5780601f106112c4576101008083540402835291602001916112ef565b820191906000526020600020905b8154815290600101906020018083116112d257829003601f168201915b5050505050905099509950995099509950995099509950995050909192939495969798565b6000805b60005481101561135b57600080543391908390811061133357fe5b6000918252602090912001546001600160a01b0316141561135357600191505b600101611318565b50806113795760405162461bcd60e51b81526004016101d1906123d7565b815161138c90600e906020850190611da8565b506040517f8dc11b0630ba80ccd04203de075cfdf0baf249e4112087a1831cbd98162cbb0a906113c090600b908590612344565b60405180910390a15050565b60608080806000805b6000548110156114185760008054339190839081106113f057fe5b6000918252602090912001546001600160a01b0316141561141057600191505b6001016113d5565b50806114365760405162461bcd60e51b81526004016101d1906123d7565b601c8054604080516020601f60026000196101006001881615020190951694909404938401819004810282018101909252828152601d92601e926021929186918301828280156114c75780601f1061149c576101008083540402835291602001916114c7565b820191906000526020600020905b8154815290600101906020018083116114aa57829003601f168201915b5050865460408051602060026001851615610100026000190190941693909304601f8101849004840282018401909252818152959950889450925084019050828280156115555780601f1061152a57610100808354040283529160200191611555565b820191906000526020600020905b81548152906001019060200180831161153857829003601f168201915b5050855460408051602060026001851615610100026000190190941693909304601f8101849004840282018401909252818152959850879450925084019050828280156115e35780601f106115b8576101008083540402835291602001916115e3565b820191906000526020600020905b8154815290600101906020018083116115c657829003601f168201915b5050845460408051602060026001851615610100026000190190941693909304601f8101849004840282018401909252818152959750869450925084019050828280156116715780601f1061164657610100808354040283529160200191611671565b820191906000526020600020905b81548152906001019060200180831161165457829003601f168201915b5050505050905094509450945094505090919293565b606060008180808080808681808083805b6000548110156116db5760008054339190839081106116b357fe5b6000918252602090912001546001600160a01b031614156116d357600191505b600101611698565b50806116f95760405162461bcd60e51b81526004016101d1906123d7565b602454602b5460238054604080516020601f60026000196101006001881615020190951694909404938401819004810282018101909252828152929493602593602693602793602893602993602a939192602c92602d92602e9290918e918301828280156117a85780601f1061177d576101008083540402835291602001916117a8565b820191906000526020600020905b81548152906001019060200180831161178b57829003601f168201915b50505050509b50898054600181600116156101000203166002900480601f0160208091040260200160405190810160405280929190818152602001828054600181600116156101000203166002900480156118445780601f1061181957610100808354040283529160200191611844565b820191906000526020600020905b81548152906001019060200180831161182757829003601f168201915b50508c5460408051602060026001851615610100026000190190941693909304601f8101849004840282018401909252818152959f508e9450925084019050828280156118d25780601f106118a7576101008083540402835291602001916118d2565b820191906000526020600020905b8154815290600101906020018083116118b557829003601f168201915b50508b5460408051602060026001851615610100026000190190941693909304601f8101849004840282018401909252818152959e508d9450925084019050828280156119605780601f1061193557610100808354040283529160200191611960565b820191906000526020600020905b81548152906001019060200180831161194357829003601f168201915b50508a5460408051602060026001851615610100026000190190941693909304601f8101849004840282018401909252818152959d508c9450925084019050828280156119ee5780601f106119c3576101008083540402835291602001916119ee565b820191906000526020600020905b8154815290600101906020018083116119d157829003601f168201915b5050895460408051602060026001851615610100026000190190941693909304601f8101849004840282018401909252818152959c508b945092508401905082828015611a7c5780601f10611a5157610100808354040283529160200191611a7c565b820191906000526020600020905b815481529060010190602001808311611a5f57829003601f168201915b5050885460408051602060026001851615610100026000190190941693909304601f8101849004840282018401909252818152959b508a945092508401905082828015611b0a5780601f10611adf57610100808354040283529160200191611b0a565b820191906000526020600020905b815481529060010190602001808311611aed57829003601f168201915b5050865460408051602060026001851615610100026000190190941693909304601f8101849004840282018401909252818152959a5088945092508401905082828015611b985780601f10611b6d57610100808354040283529160200191611b98565b820191906000526020600020905b815481529060010190602001808311611b7b57829003601f168201915b5050855460408051602060026001851615610100026000190190941693909304601f810184900484028201840190925281815295985087945092508401905082828015611c265780601f10611bfb57610100808354040283529160200191611c26565b820191906000526020600020905b815481529060010190602001808311611c0957829003601f168201915b5050845460408051602060026001851615610100026000190190941693909304601f810184900484028201840190925281815295975086945092508401905082828015611cb45780601f10611c8957610100808354040283529160200191611cb4565b820191906000526020600020905b815481529060010190602001808311611c9757829003601f168201915b505050505090509c509c509c509c509c509c509c509c509c509c509c509c5050909192939495969798999a9b565b60606000805b600054811015611d2b576000805433919083908110611d0357fe5b6000918252602090912001546001600160a01b03161415611d2357600191505b600101611ce8565b5080611d495760405162461bcd60e51b81526004016101d1906123d7565b6000805460408051602080840282018101909252828152929190830182828015611d9c57602002820191906000526020600020905b81546001600160a01b03168152600190910190602001808311611d7e575b505050505091505b5090565b828054600181600116156101000203166002900490600052602060002090601f016020900481019282601f10611de957805160ff1916838001178555611e16565b82800160010185558215611e16579182015b82811115611e16578251825591602001919060010190611dfb565b50611da492611e369250905b80821115611da45760008155600101611e22565b90565b600060208284031215611e4a578081fd5b813567ffffffffffffffff80821115611e61578283fd5b81840185601f820112611e72578384fd5b8035925081831115611e82578384fd5b604051601f8401601f191681016020018381118282101715611ea2578586fd5b604052838152818401602001871015611eb9578485fd5b611eca846020830160208501612440565b9695505050505050565b60008151808452815b81811015611ef957602081850181015186830182015201611edd565b81811115611f0a5782602083870101525b50601f01601f19169290920160200192915050565b6020808252825182820181905260009190848201906040850190845b81811015611f605783516001600160a01b031683529284019291840191600101611f3b565b50909695505050505050565b600060808252611f7f6080830187611ed4565b8281036020840152611f918187611ed4565b8381036040850152611fa38187611ed4565b9150508281036060840152611fb88185611ed4565b979650505050505050565b6000610120808352611fd78184018d611ed4565b6020915083810382850152611fec818d611ed4565b8481036040860152611ffe818d611ed4565b9150508381036060850152612013818b611ed4565b8481036080860152612025818b611ed4565b91505083810360a085015261203a8189611ed4565b84810360c086015261204c8189611ed4565b91505083810360e08501526120618187611ed4565b8481036101008601528551808252838201925083810282018401848801865b838110156120ae57601f1985840301865261209c838351611ed4565b95870195925090860190600101612080565b505080955050505050509a9950505050505050505050565b60006101208083526120da8184018d611ed4565b83810360208501526120ec818d611ed4565b9150508281036040840152612101818b611ed4565b8381036060850152612113818b611ed4565b91505082810360808401526121288189611ed4565b83810360a085015261213a8189611ed4565b91505082810360c084015261214f8187611ed4565b83810360e08501526121618187611ed4565b9150508281036101008401526121778185611ed4565b9c9b505050505050505050505050565b600060a0825261219a60a0830188611ed4565b82810360208401526121ac8188611ed4565b86604085015285606085015283810360808501526121ca8186611ed4565b9998505050505050505050565b600060e082526121ea60e083018a611ed4565b88602084015282810360408401526122028189611ed4565b83810360608501526122148189611ed4565b91505082810360808401526122298187611ed4565b83810360a085015261223b8187611ed4565b91505082810360c08401526122508185611ed4565b9a9950505050505050505050565b6000610180825261227361018083018f611ed4565b8d6020840152828103604084015261228b818e611ed4565b838103606085015261229d818e611ed4565b91505082810360808401526122b2818c611ed4565b83810360a08501526122c4818c611ed4565b91505082810360c08401526122d9818a611ed4565b83810360e08501526122eb818a611ed4565b915050866101008401528281036101208401526123088187611ed4565b83810361014085015261231b8187611ed4565b9150508281036101608401526123318185611ed4565b9f9e505050505050505050505050505050565b6000604082016040835281855460018082166000811461236b5760018114612389576123c2565b60028304607f16855260ff19831660608801526080870193506123c2565b600283048086526123998a612434565b875b828110156123b85781548a8201606001529084019060200161239b565b8901606001955050505b5050508381036020850152611eca8186611ed4565b6020808252602c908201527f506f6c6963793a206d757374206265206d757475616c20746f2063616c6c207460408201527f6869732066756e6374696f6e0000000000000000000000000000000000000000606082015260800190565b60009081526020902090565b8281833750600091015256fea264697066735822122034d2696eb68e915b612e2bc415dcbd8b447f9a1f75d0b29fa696c354cadfa1b564736f6c63430006040033a264697066735822122003ec637f52d48bb614ea7e15b48a3e408e7733c5fb7142bf65773f290481f3a464736f6c63430006040033",
  "source": "pragma solidity 0.6.4;\npragma experimental ABIEncoderV2;\n\nimport \"./AbstractFactory.sol\";\n\nimport \"./policy/PolicyModel.sol\";\n\nimport \"./Policy.sol\";\n\ncontract PolicyFactory is \n    AbstractFactory, \n    PolicyModel\n{\n    struct PolicyInstance {\n        address instanceAddress;\n        address instanceAddressOwner;\n    }\n\n    mapping(uint256 => PolicyInstance) private _policiesInstance;\n    uint256 private _policyInstanceId; \n\n    mapping(address => PolicyInstance[]) private _multuaPoliciesInstance;\n    \n    event PolicyGenerated(\n        address instancecAddress\n    );\n\n    function generatePolicy(\n        PolicyModelStruct memory policyModel\n    ) public\n        whenNotPaused\n        onlyMutual\n    {\n        Policy instance = new Policy(\n            policyModel\n        );\n\n        address instanceAddress = address(instance);\n        _policyInstanceId++;\n        _policiesInstance[_policyInstanceId] = PolicyInstance(\n            instanceAddress,\n            msg.sender\n        );\n\n        for(uint i = 0; i < policyModel.mutual.wallets.length; i++){\n            _multuaPoliciesInstance[policyModel.mutual.wallets[i]].push(_policiesInstance[_policyInstanceId]);\n        }\n\n        emit PolicyGenerated(instanceAddress);\n    }\n\n    function consultMutualPolicies(\n        address multualAddress\n    ) public \n      view\n      returns (address[] memory policyAddress, address[] memory ownerAddress)\n    {\n        PolicyInstance[] memory policyInstance = _multuaPoliciesInstance[multualAddress];\n        PolicyInstance[] memory policyInstanceMultua = _multuaPoliciesInstance[msg.sender];\n\n        require(policyInstanceMultua.length > 0 || isAdmin(msg.sender), 'PolicyFactory: must be multual or Admin');\n\n        address[] memory instanceAddresses = new address[](policyInstance.length);\n        address[] memory ownerAddresses = new address[](policyInstance.length);\n\n        for(uint256 i = 0; i < policyInstance.length; i++){\n            instanceAddresses[i] = policyInstance[i].instanceAddress;\n            ownerAddresses[i] = policyInstance[i].instanceAddressOwner;\n        }\n\n        return (instanceAddresses, ownerAddresses);\n    }\n\n}",
  "sourcePath": "C:/Files/Repo/hbtrust/hbtrust.policy.factory/contracts/PolicyFactory.sol",
  "compiler": {
    "name": "solc",
    "version": "0.6.4+commit.1dca32f3.Emscripten.clang"
  },
  "schemaVersion": "3.0.22",
  "updatedAt": "2020-03-27T17:51:03.294Z",
  "devdoc": {
    "methods": {}
  },
  "userdoc": {
    "methods": {}
  }
}