{
  "contractName": "Policy",
  "abi": [
    {
      "inputs": [
        {
          "components": [
            {
              "components": [
                {
                  "internalType": "address[]",
                  "name": "wallets",
                  "type": "address[]"
                }
              ],
              "internalType": "struct MutualModel.Mutual",
              "name": "mutual",
              "type": "tuple"
            },
            {
              "components": [
                {
                  "internalType": "string",
                  "name": "prizeAmount",
                  "type": "string"
                },
                {
                  "internalType": "string",
                  "name": "fipePercentage",
                  "type": "string"
                },
                {
                  "internalType": "string",
                  "name": "app",
                  "type": "string"
                },
                {
                  "internalType": "string",
                  "name": "glasses",
                  "type": "string"
                },
                {
                  "internalType": "string",
                  "name": "rcfMaterials",
                  "type": "string"
                },
                {
                  "internalType": "string",
                  "name": "rcfBodily",
                  "type": "string"
                },
                {
                  "internalType": "string",
                  "name": "reserveCar",
                  "type": "string"
                },
                {
                  "internalType": "string",
                  "name": "franchise",
                  "type": "string"
                },
                {
                  "internalType": "string[]",
                  "name": "productCoverage",
                  "type": "string[]"
                }
              ],
              "internalType": "struct CoverageModel.Coverage",
              "name": "coverage",
              "type": "tuple"
            },
            {
              "components": [
                {
                  "internalType": "string",
                  "name": "proposal",
                  "type": "string"
                },
                {
                  "internalType": "string",
                  "name": "apolice",
                  "type": "string"
                },
                {
                  "internalType": "uint256",
                  "name": "startValidity",
                  "type": "uint256"
                },
                {
                  "internalType": "uint256",
                  "name": "endValidity",
                  "type": "uint256"
                },
                {
                  "internalType": "string",
                  "name": "apoliceStatus",
                  "type": "string"
                }
              ],
              "internalType": "struct PolicyInformationModel.PolicyInformation",
              "name": "policyInformation",
              "type": "tuple"
            },
            {
              "components": [
                {
                  "internalType": "string",
                  "name": "nameComplete",
                  "type": "string"
                },
                {
                  "internalType": "uint256",
                  "name": "dateOfBirth",
                  "type": "uint256"
                },
                {
                  "internalType": "string",
                  "name": "maritalStatus",
                  "type": "string"
                },
                {
                  "internalType": "string",
                  "name": "pocket",
                  "type": "string"
                },
                {
                  "internalType": "string",
                  "name": "cnpjCpf",
                  "type": "string"
                },
                {
                  "internalType": "string",
                  "name": "gender",
                  "type": "string"
                },
                {
                  "internalType": "string",
                  "name": "relationshipPolicyHolder",
                  "type": "string"
                }
              ],
              "internalType": "struct PolicyHolderDataModel.PolicyHolderData",
              "name": "policyHoldedrData",
              "type": "tuple"
            },
            {
              "components": [
                {
                  "internalType": "string",
                  "name": "typeParam",
                  "type": "string"
                },
                {
                  "internalType": "string",
                  "name": "marker",
                  "type": "string"
                },
                {
                  "internalType": "string",
                  "name": "model",
                  "type": "string"
                },
                {
                  "internalType": "string",
                  "name": "numerSlides",
                  "type": "string"
                },
                {
                  "internalType": "string",
                  "name": "yearManufacture",
                  "type": "string"
                },
                {
                  "internalType": "string",
                  "name": "yearModel",
                  "type": "string"
                },
                {
                  "internalType": "string",
                  "name": "licensePlate",
                  "type": "string"
                },
                {
                  "internalType": "string",
                  "name": "chassis",
                  "type": "string"
                },
                {
                  "internalType": "string",
                  "name": "renavam",
                  "type": "string"
                },
                {
                  "internalType": "string",
                  "name": "fuel",
                  "type": "string"
                },
                {
                  "internalType": "string",
                  "name": "newVehicle",
                  "type": "string"
                },
                {
                  "internalType": "string",
                  "name": "vehicleFinaced",
                  "type": "string"
                },
                {
                  "internalType": "string",
                  "name": "color",
                  "type": "string"
                }
              ],
              "internalType": "struct VehicleDataModel.VehicleData",
              "name": "vehicleData",
              "type": "tuple"
            },
            {
              "components": [
                {
                  "internalType": "string",
                  "name": "nameComplete",
                  "type": "string"
                },
                {
                  "internalType": "uint256",
                  "name": "dateOfBirth",
                  "type": "uint256"
                },
                {
                  "internalType": "string",
                  "name": "maritalStatus",
                  "type": "string"
                },
                {
                  "internalType": "string",
                  "name": "pocket",
                  "type": "string"
                },
                {
                  "internalType": "string",
                  "name": "cpfCnpj",
                  "type": "string"
                },
                {
                  "internalType": "string",
                  "name": "gender",
                  "type": "string"
                },
                {
                  "internalType": "string",
                  "name": "profession",
                  "type": "string"
                },
                {
                  "internalType": "string",
                  "name": "cnh",
                  "type": "string"
                },
                {
                  "internalType": "uint256",
                  "name": "dateFirstCnh",
                  "type": "uint256"
                },
                {
                  "internalType": "string",
                  "name": "garage",
                  "type": "string"
                },
                {
                  "internalType": "string",
                  "name": "usesWork",
                  "type": "string"
                },
                {
                  "internalType": "string",
                  "name": "vehicleUse",
                  "type": "string"
                }
              ],
              "internalType": "struct DriverDataModel.DriverData",
              "name": "driverData",
              "type": "tuple"
            }
          ],
          "internalType": "struct PolicyModel.PolicyModelStruct",
          "name": "policyModel",
          "type": "tuple"
        }
      ],
      "stateMutability": "nonpayable",
      "type": "constructor"
    },
    {
      "anonymous": false,
      "inputs": [
        {
          "indexed": false,
          "internalType": "string",
          "name": "apolice",
          "type": "string"
        },
        {
          "indexed": false,
          "internalType": "string",
          "name": "status",
          "type": "string"
        }
      ],
      "name": "PolicyStatusUpdated",
      "type": "event"
    },
    {
      "inputs": [
        {
          "internalType": "string",
          "name": "status",
          "type": "string"
        }
      ],
      "name": "updateStatusPolicy",
      "outputs": [],
      "stateMutability": "nonpayable",
      "type": "function"
    },
    {
      "inputs": [],
      "name": "consultPolicyCoverage",
      "outputs": [
        {
          "internalType": "string",
          "name": "coveragePrizeAmount",
          "type": "string"
        },
        {
          "internalType": "string",
          "name": "coverageFipePercentage",
          "type": "string"
        },
        {
          "internalType": "string",
          "name": "coverageApp",
          "type": "string"
        },
        {
          "internalType": "string",
          "name": "coverageGlasses",
          "type": "string"
        },
        {
          "internalType": "string",
          "name": "coverageRcfMaterials",
          "type": "string"
        },
        {
          "internalType": "string",
          "name": "coverageRcfBodily",
          "type": "string"
        },
        {
          "internalType": "string",
          "name": "coverageReserveCar",
          "type": "string"
        },
        {
          "internalType": "string",
          "name": "coverageFranchise",
          "type": "string"
        },
        {
          "internalType": "string[]",
          "name": "coverageProductCoverage",
          "type": "string[]"
        }
      ],
      "stateMutability": "view",
      "type": "function"
    },
    {
      "inputs": [],
      "name": "consultDriver",
      "outputs": [
        {
          "internalType": "string",
          "name": "nameComplete",
          "type": "string"
        },
        {
          "internalType": "uint256",
          "name": "dateOfBirth",
          "type": "uint256"
        },
        {
          "internalType": "string",
          "name": "maritalStatus",
          "type": "string"
        },
        {
          "internalType": "string",
          "name": "pocket",
          "type": "string"
        },
        {
          "internalType": "string",
          "name": "cpfCnpj",
          "type": "string"
        },
        {
          "internalType": "string",
          "name": "gender",
          "type": "string"
        },
        {
          "internalType": "string",
          "name": "profession",
          "type": "string"
        },
        {
          "internalType": "string",
          "name": "cnh",
          "type": "string"
        },
        {
          "internalType": "uint256",
          "name": "dateFirstCnh",
          "type": "uint256"
        },
        {
          "internalType": "string",
          "name": "garage",
          "type": "string"
        },
        {
          "internalType": "string",
          "name": "usesWork",
          "type": "string"
        },
        {
          "internalType": "string",
          "name": "vehicleUse",
          "type": "string"
        }
      ],
      "stateMutability": "view",
      "type": "function"
    },
    {
      "inputs": [],
      "name": "consultPolicyHolder",
      "outputs": [
        {
          "internalType": "string",
          "name": "nameComplete",
          "type": "string"
        },
        {
          "internalType": "uint256",
          "name": "dateOfBirth",
          "type": "uint256"
        },
        {
          "internalType": "string",
          "name": "maritalStatus",
          "type": "string"
        },
        {
          "internalType": "string",
          "name": "pocket",
          "type": "string"
        },
        {
          "internalType": "string",
          "name": "cnpjCpf",
          "type": "string"
        },
        {
          "internalType": "string",
          "name": "gender",
          "type": "string"
        },
        {
          "internalType": "string",
          "name": "relationshipPolicyHolder",
          "type": "string"
        }
      ],
      "stateMutability": "view",
      "type": "function"
    },
    {
      "inputs": [],
      "name": "consultPolicyInformation",
      "outputs": [
        {
          "internalType": "string",
          "name": "proposal",
          "type": "string"
        },
        {
          "internalType": "string",
          "name": "apolice",
          "type": "string"
        },
        {
          "internalType": "uint256",
          "name": "startValidity",
          "type": "uint256"
        },
        {
          "internalType": "uint256",
          "name": "endValidity",
          "type": "uint256"
        },
        {
          "internalType": "string",
          "name": "apoliceStatus",
          "type": "string"
        }
      ],
      "stateMutability": "view",
      "type": "function"
    },
    {
      "inputs": [],
      "name": "consultPolicyMutual",
      "outputs": [
        {
          "internalType": "address[]",
          "name": "mutualWallets",
          "type": "address[]"
        }
      ],
      "stateMutability": "view",
      "type": "function"
    },
    {
      "inputs": [],
      "name": "consultVehicle",
      "outputs": [
        {
          "internalType": "string",
          "name": "typeParam",
          "type": "string"
        },
        {
          "internalType": "string",
          "name": "marker",
          "type": "string"
        },
        {
          "internalType": "string",
          "name": "model",
          "type": "string"
        },
        {
          "internalType": "string",
          "name": "numerSlides",
          "type": "string"
        },
        {
          "internalType": "string",
          "name": "yearManufacture",
          "type": "string"
        },
        {
          "internalType": "string",
          "name": "yearModel",
          "type": "string"
        },
        {
          "internalType": "string",
          "name": "fuel",
          "type": "string"
        },
        {
          "internalType": "string",
          "name": "newVehicle",
          "type": "string"
        },
        {
          "internalType": "string",
          "name": "color",
          "type": "string"
        }
      ],
      "stateMutability": "view",
      "type": "function"
    },
    {
      "inputs": [],
      "name": "consultVehicleDocuments",
      "outputs": [
        {
          "internalType": "string",
          "name": "licensePlate",
          "type": "string"
        },
        {
          "internalType": "string",
          "name": "chassis",
          "type": "string"
        },
        {
          "internalType": "string",
          "name": "renavam",
          "type": "string"
        },
        {
          "internalType": "string",
          "name": "vehicleFinaced",
          "type": "string"
        }
      ],
      "stateMutability": "view",
      "type": "function"
    }
  ],
  "bytecode": "0x60806040523480156200001157600080fd5b50604051620036b4380380620036b48339810160408190526200003491620010a9565b805180518051839260009290918391620000549183916020019062000571565b5050506020828101518051805191926001850192620000779284920190620005db565b506020828101518051620000929260018501920190620005db565b5060408201518051620000b0916002840191602090910190620005db565b5060608201518051620000ce916003840191602090910190620005db565b5060808201518051620000ec916004840191602090910190620005db565b5060a082015180516200010a916005840191602090910190620005db565b5060c0820151805162000128916006840191602090910190620005db565b5060e0820151805162000146916007840191602090910190620005db565b506101008201518051620001659160088401916020909101906200065c565b505050604082015180518051600a8401916200018791839160200190620005db565b506020828101518051620001a29260018501920190620005db565b50604082015160028201556060820151600382015560808201518051620001d4916004840191602090910190620005db565b505050606082015180518051600f840191620001f691839160200190620005db565b506020828101516001830155604083015180516200021b9260028501920190620005db565b506060820151805162000239916003840191602090910190620005db565b506080820151805162000257916004840191602090910190620005db565b5060a0820151805162000275916005840191602090910190620005db565b5060c0820151805162000293916006840191602090910190620005db565b5050506080820151805180516016840191620002b591839160200190620005db565b506020828101518051620002d09260018501920190620005db565b5060408201518051620002ee916002840191602090910190620005db565b50606082015180516200030c916003840191602090910190620005db565b50608082015180516200032a916004840191602090910190620005db565b5060a0820151805162000348916005840191602090910190620005db565b5060c0820151805162000366916006840191602090910190620005db565b5060e0820151805162000384916007840191602090910190620005db565b506101008201518051620003a3916008840191602090910190620005db565b506101208201518051620003c2916009840191602090910190620005db565b506101408201518051620003e191600a840191602090910190620005db565b5061016082015180516200040091600b840191602090910190620005db565b5061018082015180516200041f91600c840191602090910190620005db565b50505060a08201518051805160238401916200044191839160200190620005db565b50602082810151600183015560408301518051620004669260028501920190620005db565b506060820151805162000484916003840191602090910190620005db565b5060808201518051620004a2916004840191602090910190620005db565b5060a08201518051620004c0916005840191602090910190620005db565b5060c08201518051620004de916006840191602090910190620005db565b5060e08201518051620004fc916007840191602090910190620005db565b506101008201516008820155610120820151805162000526916009840191602090910190620005db565b5061014082015180516200054591600a840191602090910190620005db565b5061016082015180516200056491600b840191602090910190620005db565b5050509050505062001222565b828054828255906000526020600020908101928215620005c9579160200282015b82811115620005c957825182546001600160a01b0319166001600160a01b0390911617825560209092019160019091019062000592565b50620005d7929150620006bc565b5090565b828054600181600116156101000203166002900490600052602060002090601f016020900481019282601f106200061e57805160ff19168380011785556200064e565b828001600101855582156200064e579182015b828111156200064e57825182559160200191906001019062000631565b50620005d7929150620006e6565b828054828255906000526020600020908101928215620006ae579160200282015b82811115620006ae57825180516200069d918491602090910190620005db565b50916020019190600101906200067d565b50620005d792915062000703565b620006e391905b80821115620005d75780546001600160a01b0319168155600101620006c3565b90565b620006e391905b80821115620005d75760008155600101620006ed565b620006e391905b80821115620005d75760006200072182826200072b565b506001016200070a565b50805460018160011615610100020316600290046000825580601f1062000753575062000773565b601f016020900490600052602060002090810190620007739190620006e6565b50565b80516001600160a01b03811681146200078e57600080fd5b92915050565b600082601f830112620007a5578081fd5b8151620007bc620007b68262001202565b620011db565b818152915060208083019084810160005b84811015620007fa57620007e7888484518a010162000805565b84529282019290820190600101620007cd565b505050505092915050565b600082601f83011262000816578081fd5b81516001600160401b038111156200082c578182fd5b602062000842601f8301601f19168201620011db565b925081835284818386010111156200085957600080fd5b60005b82811015620008795784810182015184820183015281016200085c565b828111156200088b5760008284860101525b50505092915050565b6000610120808385031215620008a8578182fd5b620008b381620011db565b835190925090506001600160401b0380821115620008d057600080fd5b620008de8583860162000805565b83526020840151915080821115620008f557600080fd5b620009038583860162000805565b602084015260408401519150808211156200091d57600080fd5b6200092b8583860162000805565b604084015260608401519150808211156200094557600080fd5b620009538583860162000805565b606084015260808401519150808211156200096d57600080fd5b6200097b8583860162000805565b608084015260a08401519150808211156200099557600080fd5b620009a38583860162000805565b60a084015260c0840151915080821115620009bd57600080fd5b620009cb8583860162000805565b60c084015260e0840151915080821115620009e557600080fd5b620009f38583860162000805565b60e08401526101009150818401518181111562000a0f57600080fd5b62000a1d8682870162000794565b8385015250505092915050565b600061018080838503121562000a3e578182fd5b62000a4981620011db565b835190925090506001600160401b038082111562000a6657600080fd5b62000a748583860162000805565b835260208401516020840152604084015191508082111562000a9557600080fd5b62000aa38583860162000805565b6040840152606084015191508082111562000abd57600080fd5b62000acb8583860162000805565b6060840152608084015191508082111562000ae557600080fd5b62000af38583860162000805565b608084015260a084015191508082111562000b0d57600080fd5b62000b1b8583860162000805565b60a084015260c084015191508082111562000b3557600080fd5b62000b438583860162000805565b60c084015260e084015191508082111562000b5d57600080fd5b62000b6b8583860162000805565b60e08401526101008481015190840152610120808501519092508181111562000b9357600080fd5b62000ba18682870162000805565b83850152506101409150818401518181111562000bbd57600080fd5b62000bcb8682870162000805565b83850152506101609150818401518181111562000be757600080fd5b62000a1d8682870162000805565b6000602080838503121562000c08578182fd5b62000c1381620011db565b83519092506001600160401b0381111562000c2d57600080fd5b80840185601f82011262000c4057600080fd5b8051915062000c53620007b68362001202565b828152838101908285018585028401860189101562000c7157600080fd5b600093505b8484101562000ca05762000c8b898262000776565b83526001939093019291850191850162000c76565b508552509295945050505050565b600060e0828403121562000cc0578081fd5b62000ccc60e0620011db565b82519091506001600160401b038082111562000ce757600080fd5b62000cf58583860162000805565b835260208401516020840152604084015191508082111562000d1657600080fd5b62000d248583860162000805565b6040840152606084015191508082111562000d3e57600080fd5b62000d4c8583860162000805565b6060840152608084015191508082111562000d6657600080fd5b62000d748583860162000805565b608084015260a084015191508082111562000d8e57600080fd5b62000d9c8583860162000805565b60a084015260c084015191508082111562000db657600080fd5b5062000dc58482850162000805565b60c08301525092915050565b600060a0828403121562000de3578081fd5b62000def60a0620011db565b82519091506001600160401b038082111562000e0a57600080fd5b62000e188583860162000805565b8352602084015191508082111562000e2f57600080fd5b62000e3d8583860162000805565b60208401526040840151604084015260608401516060840152608084015191508082111562000e6b57600080fd5b5062000e7a8482850162000805565b60808301525092915050565b60006101a080838503121562000e9a578182fd5b62000ea581620011db565b835190925090506001600160401b038082111562000ec257600080fd5b62000ed08583860162000805565b8352602084015191508082111562000ee757600080fd5b62000ef58583860162000805565b6020840152604084015191508082111562000f0f57600080fd5b62000f1d8583860162000805565b6040840152606084015191508082111562000f3757600080fd5b62000f458583860162000805565b6060840152608084015191508082111562000f5f57600080fd5b62000f6d8583860162000805565b608084015260a084015191508082111562000f8757600080fd5b62000f958583860162000805565b60a084015260c084015191508082111562000faf57600080fd5b62000fbd8583860162000805565b60c084015260e084015191508082111562000fd757600080fd5b62000fe58583860162000805565b60e0840152610100915081840151818111156200100157600080fd5b6200100f8682870162000805565b8385015250610120915081840151818111156200102b57600080fd5b620010398682870162000805565b8385015250610140915081840151818111156200105557600080fd5b620010638682870162000805565b8385015250610160915081840151818111156200107f57600080fd5b6200108d8682870162000805565b83850152506101809150818401518181111562000be757600080fd5b600060208284031215620010bb578081fd5b81516001600160401b0380821115620010d2578283fd5b81840160c08187031215620010e5578384fd5b620010f160c0620011db565b925080518281111562001102578485fd5b620011108782840162000bf5565b84525060208101518281111562001125578485fd5b620011338782840162000894565b6020850152506040810151828111156200114b578485fd5b620011598782840162000dd1565b60408501525060608101518281111562001171578485fd5b6200117f8782840162000cae565b60608501525060808101518281111562001197578485fd5b620011a58782840162000e86565b60808501525060a081015182811115620011bd578485fd5b620011cb8782840162000a2a565b60a0850152509195945050505050565b6040518181016001600160401b0381118282101715620011fa57600080fd5b604052919050565b60006001600160401b0382111562001218578081fd5b5060209081020190565b61248280620012326000396000f3fe608060405234801561001057600080fd5b50600436106100885760003560e01c8063c098dc051161005b578063c098dc0514610104578063c64cf12e14610119578063c78d891b14610131578063faff4cd51461015157610088565b806331d5e6eb1461008d57806352c10b9d146100af57806352df8bbb146100ca578063c027d26a146100e7575b600080fd5b610095610166565b6040516100a6959493929190612187565b60405180910390f35b6100b76103a7565b6040516100a697969594939291906121d7565b6100d2610794565b6040516100a699989796959493929190611fc3565b6100ef610d75565b6040516100a6999897969594939291906120c6565b610117610112366004611e39565b611314565b005b6101216113cc565b6040516100a69493929190611f6c565b610139611687565b6040516100a69c9b9a9998979695949392919061225e565b610159611ce2565b6040516100a69190611f1f565b6060806000808281805b6000548110156101b357600080543391908390811061018b57fe5b6000918252602090912001546001600160a01b031614156101ab57600191505b600101610170565b50806101da5760405162461bcd60e51b81526004016101d1906123d7565b60405180910390fd5b600c54600d54600a805460408051602060026001851615610100026000190190941693909304601f81018490048402820184019092528181529294600b9490939092600e9287918301828280156102725780601f1061024757610100808354040283529160200191610272565b820191906000526020600020905b81548152906001019060200180831161025557829003601f168201915b5050875460408051602060026001851615610100026000190190941693909304601f8101849004840282018401909252818152959a50899450925084019050828280156103005780601f106102d557610100808354040283529160200191610300565b820191906000526020600020905b8154815290600101906020018083116102e357829003601f168201915b5050845460408051602060026001851615610100026000190190941693909304601f81018490048402820184019092528181529599508694509250840190508282801561038e5780601f106103635761010080835404028352916020019161038e565b820191906000526020600020905b81548152906001019060200180831161037157829003601f168201915b5050505050905095509550955095509550509091929394565b60606000818080808085805b6000548110156103f65760008054339190839081106103ce57fe5b6000918252602090912001546001600160a01b031614156103ee57600191505b6001016103b3565b50806104145760405162461bcd60e51b81526004016101d1906123d7565b601054600f805460408051602060026001851615610100026000190190941693909304601f810184900484028201840190925281815292939260119260129260139260149260159289918301828280156104af5780601f10610484576101008083540402835291602001916104af565b820191906000526020600020905b81548152906001019060200180831161049257829003601f168201915b5050885460408051602060026001851615610100026000190190941693909304601f8101849004840282018401909252818152959c508a94509250840190508282801561053d5780601f106105125761010080835404028352916020019161053d565b820191906000526020600020905b81548152906001019060200180831161052057829003601f168201915b5050875460408051602060026001851615610100026000190190941693909304601f8101849004840282018401909252818152959a50899450925084019050828280156105cb5780601f106105a0576101008083540402835291602001916105cb565b820191906000526020600020905b8154815290600101906020018083116105ae57829003601f168201915b5050865460408051602060026001851615610100026000190190941693909304601f8101849004840282018401909252818152959950889450925084019050828280156106595780601f1061062e57610100808354040283529160200191610659565b820191906000526020600020905b81548152906001019060200180831161063c57829003601f168201915b5050855460408051602060026001851615610100026000190190941693909304601f8101849004840282018401909252818152959850879450925084019050828280156106e75780601f106106bc576101008083540402835291602001916106e7565b820191906000526020600020905b8154815290600101906020018083116106ca57829003601f168201915b5050845460408051602060026001851615610100026000190190941693909304601f8101849004840282018401909252818152959750869450925084019050828280156107755780601f1061074a57610100808354040283529160200191610775565b820191906000526020600020905b81548152906001019060200180831161075857829003601f168201915b5050505050905097509750975097509750975097505090919293949596565b606080808080808080806000805b6000548110156107e55760008054339190839081106107bd57fe5b6000918252602090912001546001600160a01b031614156107dd57600191505b6001016107a2565b50806108035760405162461bcd60e51b81526004016101d1906123d7565b600180546040805160206002848616156101000260001901909416849004601f81018290048202830182019093528282526003926004926005926006926007926008926009928b9183018282801561089c5780601f106108715761010080835404028352916020019161089c565b820191906000526020600020905b81548152906001019060200180831161087f57829003601f168201915b50508b5460408051602060026001851615610100026000190190941693909304601f8101849004840282018401909252818152959e508d94509250840190508282801561092a5780601f106108ff5761010080835404028352916020019161092a565b820191906000526020600020905b81548152906001019060200180831161090d57829003601f168201915b50508a5460408051602060026001851615610100026000190190941693909304601f8101849004840282018401909252818152959d508c9450925084019050828280156109b85780601f1061098d576101008083540402835291602001916109b8565b820191906000526020600020905b81548152906001019060200180831161099b57829003601f168201915b5050895460408051602060026001851615610100026000190190941693909304601f8101849004840282018401909252818152959c508b945092508401905082828015610a465780601f10610a1b57610100808354040283529160200191610a46565b820191906000526020600020905b815481529060010190602001808311610a2957829003601f168201915b5050885460408051602060026001851615610100026000190190941693909304601f8101849004840282018401909252818152959b508a945092508401905082828015610ad45780601f10610aa957610100808354040283529160200191610ad4565b820191906000526020600020905b815481529060010190602001808311610ab757829003601f168201915b5050875460408051602060026001851615610100026000190190941693909304601f8101849004840282018401909252818152959a5089945092508401905082828015610b625780601f10610b3757610100808354040283529160200191610b62565b820191906000526020600020905b815481529060010190602001808311610b4557829003601f168201915b5050865460408051602060026001851615610100026000190190941693909304601f810184900484028201840190925281815295995088945092508401905082828015610bf05780601f10610bc557610100808354040283529160200191610bf0565b820191906000526020600020905b815481529060010190602001808311610bd357829003601f168201915b5050855460408051602060026001851615610100026000190190941693909304601f810184900484028201840190925281815295985087945092508401905082828015610c7e5780601f10610c5357610100808354040283529160200191610c7e565b820191906000526020600020905b815481529060010190602001808311610c6157829003601f168201915b5050505050915080805480602002602001604051908101604052809291908181526020016000905b82821015610d515760008481526020908190208301805460408051601f6002600019610100600187161502019094169390930492830185900485028101850190915281815292830182828015610d3d5780601f10610d1257610100808354040283529160200191610d3d565b820191906000526020600020905b815481529060010190602001808311610d2057829003601f168201915b505050505081526020019060010190610ca6565b50505050905099509950995099509950995099509950995050909192939495969798565b606080808080808080806000805b600054811015610dc6576000805433919083908110610d9e57fe5b6000918252602090912001546001600160a01b03161415610dbe57600191505b600101610d83565b5080610de45760405162461bcd60e51b81526004016101d1906123d7565b6016805460408051602060026000196101006001871615020190941693909304601f818101859004850283018501909352808252601793601893601993601a93601b93916022918a9082850182828015610e7f5780601f10610e5457610100808354040283529160200191610e7f565b820191906000526020600020905b815481529060010190602001808311610e6257829003601f168201915b50508b5460408051602060026001851615610100026000190190941693909304601f8101849004840282018401909252818152959e508d945092508401905082828015610f0d5780601f10610ee257610100808354040283529160200191610f0d565b820191906000526020600020905b815481529060010190602001808311610ef057829003601f168201915b50508a5460408051602060026001851615610100026000190190941693909304601f8101849004840282018401909252818152959d508c945092508401905082828015610f9b5780601f10610f7057610100808354040283529160200191610f9b565b820191906000526020600020905b815481529060010190602001808311610f7e57829003601f168201915b5050895460408051602060026001851615610100026000190190941693909304601f8101849004840282018401909252818152959c508b9450925084019050828280156110295780601f10610ffe57610100808354040283529160200191611029565b820191906000526020600020905b81548152906001019060200180831161100c57829003601f168201915b5050885460408051602060026001851615610100026000190190941693909304601f8101849004840282018401909252818152959b508a9450925084019050828280156110b75780601f1061108c576101008083540402835291602001916110b7565b820191906000526020600020905b81548152906001019060200180831161109a57829003601f168201915b5050875460408051602060026001851615610100026000190190941693909304601f8101849004840282018401909252818152959a50899450925084019050828280156111455780601f1061111a57610100808354040283529160200191611145565b820191906000526020600020905b81548152906001019060200180831161112857829003601f168201915b5050865460408051602060026001851615610100026000190190941693909304601f8101849004840282018401909252818152959950889450925084019050828280156111d35780601f106111a8576101008083540402835291602001916111d3565b820191906000526020600020905b8154815290600101906020018083116111b657829003601f168201915b5050855460408051602060026001851615610100026000190190941693909304601f8101849004840282018401909252818152959850879450925084019050828280156112615780601f1061123657610100808354040283529160200191611261565b820191906000526020600020905b81548152906001019060200180831161124457829003601f168201915b5050845460408051602060026001851615610100026000190190941693909304601f8101849004840282018401909252818152959750869450925084019050828280156112ef5780601f106112c4576101008083540402835291602001916112ef565b820191906000526020600020905b8154815290600101906020018083116112d257829003601f168201915b5050505050905099509950995099509950995099509950995050909192939495969798565b6000805b60005481101561135b57600080543391908390811061133357fe5b6000918252602090912001546001600160a01b0316141561135357600191505b600101611318565b50806113795760405162461bcd60e51b81526004016101d1906123d7565b815161138c90600e906020850190611da8565b506040517f8dc11b0630ba80ccd04203de075cfdf0baf249e4112087a1831cbd98162cbb0a906113c090600b908590612344565b60405180910390a15050565b60608080806000805b6000548110156114185760008054339190839081106113f057fe5b6000918252602090912001546001600160a01b0316141561141057600191505b6001016113d5565b50806114365760405162461bcd60e51b81526004016101d1906123d7565b601c8054604080516020601f60026000196101006001881615020190951694909404938401819004810282018101909252828152601d92601e926021929186918301828280156114c75780601f1061149c576101008083540402835291602001916114c7565b820191906000526020600020905b8154815290600101906020018083116114aa57829003601f168201915b5050865460408051602060026001851615610100026000190190941693909304601f8101849004840282018401909252818152959950889450925084019050828280156115555780601f1061152a57610100808354040283529160200191611555565b820191906000526020600020905b81548152906001019060200180831161153857829003601f168201915b5050855460408051602060026001851615610100026000190190941693909304601f8101849004840282018401909252818152959850879450925084019050828280156115e35780601f106115b8576101008083540402835291602001916115e3565b820191906000526020600020905b8154815290600101906020018083116115c657829003601f168201915b5050845460408051602060026001851615610100026000190190941693909304601f8101849004840282018401909252818152959750869450925084019050828280156116715780601f1061164657610100808354040283529160200191611671565b820191906000526020600020905b81548152906001019060200180831161165457829003601f168201915b5050505050905094509450945094505090919293565b606060008180808080808681808083805b6000548110156116db5760008054339190839081106116b357fe5b6000918252602090912001546001600160a01b031614156116d357600191505b600101611698565b50806116f95760405162461bcd60e51b81526004016101d1906123d7565b602454602b5460238054604080516020601f60026000196101006001881615020190951694909404938401819004810282018101909252828152929493602593602693602793602893602993602a939192602c92602d92602e9290918e918301828280156117a85780601f1061177d576101008083540402835291602001916117a8565b820191906000526020600020905b81548152906001019060200180831161178b57829003601f168201915b50505050509b50898054600181600116156101000203166002900480601f0160208091040260200160405190810160405280929190818152602001828054600181600116156101000203166002900480156118445780601f1061181957610100808354040283529160200191611844565b820191906000526020600020905b81548152906001019060200180831161182757829003601f168201915b50508c5460408051602060026001851615610100026000190190941693909304601f8101849004840282018401909252818152959f508e9450925084019050828280156118d25780601f106118a7576101008083540402835291602001916118d2565b820191906000526020600020905b8154815290600101906020018083116118b557829003601f168201915b50508b5460408051602060026001851615610100026000190190941693909304601f8101849004840282018401909252818152959e508d9450925084019050828280156119605780601f1061193557610100808354040283529160200191611960565b820191906000526020600020905b81548152906001019060200180831161194357829003601f168201915b50508a5460408051602060026001851615610100026000190190941693909304601f8101849004840282018401909252818152959d508c9450925084019050828280156119ee5780601f106119c3576101008083540402835291602001916119ee565b820191906000526020600020905b8154815290600101906020018083116119d157829003601f168201915b5050895460408051602060026001851615610100026000190190941693909304601f8101849004840282018401909252818152959c508b945092508401905082828015611a7c5780601f10611a5157610100808354040283529160200191611a7c565b820191906000526020600020905b815481529060010190602001808311611a5f57829003601f168201915b5050885460408051602060026001851615610100026000190190941693909304601f8101849004840282018401909252818152959b508a945092508401905082828015611b0a5780601f10611adf57610100808354040283529160200191611b0a565b820191906000526020600020905b815481529060010190602001808311611aed57829003601f168201915b5050865460408051602060026001851615610100026000190190941693909304601f8101849004840282018401909252818152959a5088945092508401905082828015611b985780601f10611b6d57610100808354040283529160200191611b98565b820191906000526020600020905b815481529060010190602001808311611b7b57829003601f168201915b5050855460408051602060026001851615610100026000190190941693909304601f810184900484028201840190925281815295985087945092508401905082828015611c265780601f10611bfb57610100808354040283529160200191611c26565b820191906000526020600020905b815481529060010190602001808311611c0957829003601f168201915b5050845460408051602060026001851615610100026000190190941693909304601f810184900484028201840190925281815295975086945092508401905082828015611cb45780601f10611c8957610100808354040283529160200191611cb4565b820191906000526020600020905b815481529060010190602001808311611c9757829003601f168201915b505050505090509c509c509c509c509c509c509c509c509c509c509c509c5050909192939495969798999a9b565b60606000805b600054811015611d2b576000805433919083908110611d0357fe5b6000918252602090912001546001600160a01b03161415611d2357600191505b600101611ce8565b5080611d495760405162461bcd60e51b81526004016101d1906123d7565b6000805460408051602080840282018101909252828152929190830182828015611d9c57602002820191906000526020600020905b81546001600160a01b03168152600190910190602001808311611d7e575b505050505091505b5090565b828054600181600116156101000203166002900490600052602060002090601f016020900481019282601f10611de957805160ff1916838001178555611e16565b82800160010185558215611e16579182015b82811115611e16578251825591602001919060010190611dfb565b50611da492611e369250905b80821115611da45760008155600101611e22565b90565b600060208284031215611e4a578081fd5b813567ffffffffffffffff80821115611e61578283fd5b81840185601f820112611e72578384fd5b8035925081831115611e82578384fd5b604051601f8401601f191681016020018381118282101715611ea2578586fd5b604052838152818401602001871015611eb9578485fd5b611eca846020830160208501612440565b9695505050505050565b60008151808452815b81811015611ef957602081850181015186830182015201611edd565b81811115611f0a5782602083870101525b50601f01601f19169290920160200192915050565b6020808252825182820181905260009190848201906040850190845b81811015611f605783516001600160a01b031683529284019291840191600101611f3b565b50909695505050505050565b600060808252611f7f6080830187611ed4565b8281036020840152611f918187611ed4565b8381036040850152611fa38187611ed4565b9150508281036060840152611fb88185611ed4565b979650505050505050565b6000610120808352611fd78184018d611ed4565b6020915083810382850152611fec818d611ed4565b8481036040860152611ffe818d611ed4565b9150508381036060850152612013818b611ed4565b8481036080860152612025818b611ed4565b91505083810360a085015261203a8189611ed4565b84810360c086015261204c8189611ed4565b91505083810360e08501526120618187611ed4565b8481036101008601528551808252838201925083810282018401848801865b838110156120ae57601f1985840301865261209c838351611ed4565b95870195925090860190600101612080565b505080955050505050509a9950505050505050505050565b60006101208083526120da8184018d611ed4565b83810360208501526120ec818d611ed4565b9150508281036040840152612101818b611ed4565b8381036060850152612113818b611ed4565b91505082810360808401526121288189611ed4565b83810360a085015261213a8189611ed4565b91505082810360c084015261214f8187611ed4565b83810360e08501526121618187611ed4565b9150508281036101008401526121778185611ed4565b9c9b505050505050505050505050565b600060a0825261219a60a0830188611ed4565b82810360208401526121ac8188611ed4565b86604085015285606085015283810360808501526121ca8186611ed4565b9998505050505050505050565b600060e082526121ea60e083018a611ed4565b88602084015282810360408401526122028189611ed4565b83810360608501526122148189611ed4565b91505082810360808401526122298187611ed4565b83810360a085015261223b8187611ed4565b91505082810360c08401526122508185611ed4565b9a9950505050505050505050565b6000610180825261227361018083018f611ed4565b8d6020840152828103604084015261228b818e611ed4565b838103606085015261229d818e611ed4565b91505082810360808401526122b2818c611ed4565b83810360a08501526122c4818c611ed4565b91505082810360c08401526122d9818a611ed4565b83810360e08501526122eb818a611ed4565b915050866101008401528281036101208401526123088187611ed4565b83810361014085015261231b8187611ed4565b9150508281036101608401526123318185611ed4565b9f9e505050505050505050505050505050565b6000604082016040835281855460018082166000811461236b5760018114612389576123c2565b60028304607f16855260ff19831660608801526080870193506123c2565b600283048086526123998a612434565b875b828110156123b85781548a8201606001529084019060200161239b565b8901606001955050505b5050508381036020850152611eca8186611ed4565b6020808252602c908201527f506f6c6963793a206d757374206265206d757475616c20746f2063616c6c207460408201527f6869732066756e6374696f6e0000000000000000000000000000000000000000606082015260800190565b60009081526020902090565b8281833750600091015256fea264697066735822122034d2696eb68e915b612e2bc415dcbd8b447f9a1f75d0b29fa696c354cadfa1b564736f6c63430006040033",
  "source": "pragma solidity 0.6.4;\npragma experimental ABIEncoderV2;\n\nimport './policy/PolicyModel.sol';\n\ncontract Policy is PolicyModel {\n\n    PolicyModelStruct private _policyModel;\n\n    modifier isMutual(){\n        bool result = false;\n\n        for(uint256 i = 0; i < _policyModel.mutual.wallets.length; i++ )\n        {\n            if(_policyModel.mutual.wallets[i] == msg.sender)\n            {\n                result = true;\n            }\n        }\n\n        require(result, 'Policy: must be mutual to call this function');\n        _;\n    }\n\n    event PolicyStatusUpdated(\n        string apolice,\n        string status\n    );\n\n    constructor (\n        PolicyModelStruct memory policyModel\n    ) public\n    {\n        _policyModel = policyModel;\n    }\n\n     function updateStatusPolicy(\n        string memory status\n    ) public\n        isMutual\n    {\n        \n        _policyModel.policyInformation.apoliceStatus = status;\n        \n        emit PolicyStatusUpdated(\n            _policyModel.policyInformation.apolice,\n            status\n        );\n    }\n\n    function consultPolicyCoverage(\n    ) public\n      view\n        isMutual\n      returns(\n            string memory coveragePrizeAmount,\n            string memory coverageFipePercentage,\n            string memory coverageApp,\n            string memory coverageGlasses,\n            string memory coverageRcfMaterials,\n            string memory coverageRcfBodily,\n            string memory coverageReserveCar,\n            string memory coverageFranchise,\n            string[] memory coverageProductCoverage\n      )\n    {\n        return(\n            _policyModel.coverage.prizeAmount,\n            _policyModel.coverage.fipePercentage,\n            _policyModel.coverage.app,\n            _policyModel.coverage.glasses,\n            _policyModel.coverage.rcfMaterials,\n            _policyModel.coverage.rcfBodily,\n            _policyModel.coverage.reserveCar,\n            _policyModel.coverage.franchise,\n            _policyModel.coverage.productCoverage\n        );\n    }\n\n    function consultDriver(\n    ) public\n      view\n        isMutual\n      returns(\n            string memory nameComplete,\n            uint256 dateOfBirth,\n            string memory maritalStatus,\n            string memory pocket,\n            string memory cpfCnpj,\n            string memory gender,\n            string memory profession,\n            string memory cnh,\n            uint256 dateFirstCnh,\n            string memory garage,\n            string memory usesWork,\n            string memory vehicleUse\n      )\n    {\n        return(\n            _policyModel.driverData.nameComplete,\n            _policyModel.driverData.dateOfBirth,\n            _policyModel.driverData.maritalStatus,\n            _policyModel.driverData.pocket,\n            _policyModel.driverData.cpfCnpj,\n            _policyModel.driverData.gender,\n            _policyModel.driverData.profession,\n            _policyModel.driverData.cnh,\n            _policyModel.driverData.dateFirstCnh,\n            _policyModel.driverData.garage,\n            _policyModel.driverData.usesWork,\n            _policyModel.driverData.vehicleUse\n        );\n    }\n\n    function consultPolicyHolder(\n    ) public\n      view\n        isMutual\n      returns(\n            string memory nameComplete,\n            uint256 dateOfBirth,\n            string memory maritalStatus,\n            string memory pocket,\n            string memory cnpjCpf,\n            string memory gender,\n            string memory relationshipPolicyHolder\n      )\n    {\n        return(\n            _policyModel.policyHoldedrData.nameComplete,\n            _policyModel.policyHoldedrData.dateOfBirth,\n            _policyModel.policyHoldedrData.maritalStatus,\n            _policyModel.policyHoldedrData.pocket,\n            _policyModel.policyHoldedrData.cnpjCpf,\n            _policyModel.policyHoldedrData.gender,\n            _policyModel.policyHoldedrData.relationshipPolicyHolder\n        );\n    }\n\n     function consultPolicyInformation(\n    ) public\n      view\n        isMutual\n      returns(\n            string memory proposal,\n            string memory apolice,\n            uint256 startValidity,\n            uint256 endValidity,\n            string memory apoliceStatus\n      )\n    {\n        return (\n            _policyModel.policyInformation.proposal,\n            _policyModel.policyInformation.apolice,\n            _policyModel.policyInformation.startValidity,\n            _policyModel.policyInformation.endValidity,\n            _policyModel.policyInformation.apoliceStatus\n        );\n    }\n\n    function consultPolicyMutual(\n    ) public \n      view\n        isMutual\n      returns(\n            address[] memory mutualWallets\n      )\n    {\n        return (\n            _policyModel.mutual.wallets\n        );\n    }\n\n    function consultVehicle(\n    ) public\n      view\n        isMutual\n      returns(\n            string memory typeParam,\n            string memory marker,\n            string memory model,\n            string memory numerSlides,\n            string memory yearManufacture,\n            string memory yearModel,\n            string memory fuel,\n            string memory newVehicle,\n            string memory color\n      )\n    {\n        return (\n            _policyModel.vehicleData.typeParam,\n            _policyModel.vehicleData.marker,\n            _policyModel.vehicleData.model,\n            _policyModel.vehicleData.numerSlides,\n            _policyModel.vehicleData.yearManufacture,\n            _policyModel.vehicleData.yearModel,\n            _policyModel.vehicleData.fuel,\n            _policyModel.vehicleData.newVehicle,\n            _policyModel.vehicleData.color\n        );\n    }\n\n    function consultVehicleDocuments(\n    ) public\n      view\n        isMutual\n      returns(\n            string memory licensePlate,\n            string memory chassis,\n            string memory renavam,\n            string memory vehicleFinaced\n      )\n    {\n        return(\n            _policyModel.vehicleData.licensePlate,\n            _policyModel.vehicleData.chassis,\n            _policyModel.vehicleData.renavam,\n            _policyModel.vehicleData.vehicleFinaced\n        );\n    }\n}",
  "sourcePath": "C:\\Files\\Repo\\hbtrust\\hbtrust.policy.factory\\contracts\\Policy.sol",
  "compiler": {
    "name": "solc",
    "version": "0.6.4+commit.1dca32f3.Emscripten.clang"
  },
  "schemaVersion": "3.0.22",
  "updatedAt": "2020-03-27T17:51:03.281Z",
  "devdoc": {
    "methods": {}
  },
  "userdoc": {
    "methods": {}
  }
}